:1020000000800020E1350000C9350000C93500001E
:1020100000000000000000000000000000000000C0
:10202000000000000000000000000000C9350000B2
:102030000000000000000000C93500003536000037
:10204000C9350000C9350000C9350000C935000098
:10205000C9350000C9350000C9350000CD35000084
:10206000C935000015350000C93500009525000070
:10207000C9350000C935000025350000C93500000C
:10208000C9350000C9350000C9350000C935000058
:1020900000000000C9350000C9350000C935000046
:1020A000C9350000C9350000C9350000C935000038
:1020B0000000000010B5064C2378002B07D1054B1B
:1020C000002B02D0044800E000BF0123237010BDA4
:1020D00010010020000000003C61000008B5084B22
:1020E000002B03D00748084900E000BF07480368F9
:1020F000002B03D0064B002B00D0984708BDC046EC
:10210000000000003C6100001401002004010020D8
:10211000000000000020704770470020704700203A
:1021200070470A3189000A500120704710B5041C1D
:102130008068E16803689B68984700200123E0629B
:102140002063A363E060E063206410BDC068704753
:102150000A3189000858704730B5846B049B022C03
:102160001BD00263C162D97803220A40032A14D12A
:102170009A787F2A11D99A79416C8A4200D94264AF
:102180000C2262439D780F218218294011611B792E
:102190000134536104231376846330BD08B4024BC9
:1021A0009C46043808BC604759210000704730B590
:1021B00085B0041C02910392029A002A00D1BBE070
:1021C000A06B0428F8D803F09BFB030B191E390001
:1021D0000223E2682372A361636101232261A36386
:1021E000201C103003A902AA00F01EFC002800D118
:1021F000A2E0E3681A78E2635B782364231C2A3345
:10220000E3600323A363236C042B0AD002D8022BC0
:102210000BD00CE0052B09D0212B08D1E36B023B3E
:1022200004E0231C002244331A7007232372E3685E
:102230002361237AA36163610423A363236C042BCA
:1022400010D0052B34D0022B4ED1201C103003A906
:1022500002AA00F0E9FB00286ED0231C28335B792A
:10226000A3645FE0201C103003A902AA00F0DCFB8D
:10227000002861D0231C28335A79032A52D19A7935
:10228000012A4FD1221C58321178DA79002902D064
:10229000002A47D001E0022A44D1221C4432012105
:1022A00011709A782265DA786265DB79E36439E047
:1022B000201C103003A902AA00F0B6FB00283BD076
:1022C000231C44331B78002B2CD06068002829D0B5
:1022D000E26C03680092221C283201921D68A16CF6
:1022E000226D636DA8471DE0236AE26B002B02D0CC
:1022F000012B04D013E0931E636201232362029832
:10230000039D031C626A2918C91A002A10D0002BE9
:1023100003D0013A6262013BF4E703910293636ADE
:10232000002B09D1231C2833E3600023A36343E778
:10233000039102932262F2E705B030BDF0B5026C62
:102340008BB0041C002A04D001F082F9E36BC01AA0
:1023500001D500252AE0236A6E46163633800093A5
:102360000023019301230293E16918228023E0688E
:1023700006AF01F0DFFC0097A068E168E269331C5A
:1023800000F005FF051E0CD13388022B09D9A06A85
:10239000002806D0026800971668DBB2211C2A1CB0
:1023A000B04701F055F9626C8018E063281C0BB04F
:1023B000F0BD0000F0B5A7B00791C168041C0892F9
:1023C000099386680491002900D0D5E03368416400
:1023D0001B68301C9847071E01D1D62244E00368D1
:1023E0000393002B00D1CAE0211C10310160099A2F
:1023F000069104990AABC2600093A0680A1C1223DC
:1024000000F04EFE051E00D0AEE00AA909785E4B32
:1024100005911989802292000A431A811A8992052E
:10242000D50FFBD1039A33683A6059682A1C8C4651
:10243000089B301C0799E047D422031CE06013D0AE
:102440002F2169440A78A0686261291C2A1C00F0C7
:1024500076FEE1680390002808D03368FD609B6831
:10246000301C9847039AE56004928AE03B68069A1C
:1024700007930AAB3A60A0680093039A122300F016
:102480000FFE0799051C396070D13368F8601B682E
:10249000301CE168984700289FD0059A131C122A27
:1024A00000D912230999DBB2C1600AAE002B02D118
:1024B000767C002526E00096A068E168002200F006
:1024C000EFFD051E52D1F3E7304A25A90F92221DD8
:1024D00010920022179218920A7019A90FAB1D9240
:1024E0001E921F9212911391187A169115901490C2
:1024F0000093A068E1682B1C00F0FCFDA26B022A8F
:1025000002D00135B542DFD3A26BD125022A2DD1ED
:10251000E168069BA06800F0E8FCFA20800001F06A
:102520009DF8A068E1680022E36A00F01FFE051E26
:102530001CD1FA20800001F091F8291C2A1C201CD3
:1025400000F0BEF9051E11D1291C2A1C2B1C201CD1
:1025500000F09EF90E4B201C291C0FAA0F9300F0CF
:102560007BF9012323640CE0039B3B602368201C60
:102570009B689847049504E0D923049301E0D72190
:102580000491049827B0F0BD00500041685B000042
:10259000785B000008B5024801F0F2FF08BDC046B4
:1025A0008C01002038B50D4C0D49201C01F0E4FCD5
:1025B0000C4D281C00F02EFA0A22011C201C01F0F0
:1025C0003CFD0949201C01F0D7FC281C00F027FA2B
:1025D0000A22011C201C01F034FD38BD8C010020B2
:1025E000C05B000030010020C75B000038B50D4C17
:1025F0000D49201C01F0C0FC0C4D281C00F00AFA0B
:102600000A22011C201C01F018FD0949201C01F0C0
:10261000B3FC281C00F003FA0A22011C201C01F064
:1026200010FD38BD8C010020CA5B00003001002085
:10263000C75B000070B5144C1449201C01F09CFCD1
:10264000134D0126AA6D1640012E05D1201C1149FB
:1026500001F092FC104B1E70AB6D9B0706D5201C41
:102660000E4901F089FC0E4B01221A70AB6D5A071E
:1026700006D5201C0B4901F07FFC0B4B01221A7080
:10268000201C01F083FC70BD8C010020D15B000098
:1026900030010020DB5B00002D010020DD5B00002D
:1026A00048020020DF5B00002C01002070B51A4CAE
:1026B0001A49201C01F060FC194EB36DDA0703D4EF
:1026C000184D2B78002B11D1B36D9B0703D4164DF9
:1026D0002B78002B11D1B36D5A0703D4134D2B78EF
:1026E000002B11D1201C01F051FC70BD201C1049A1
:1026F00001F042FC00232B70E6E7201C0D4901F09D
:102700003BFC00232B70E6E7201C0B4901F034FC56
:1027100000232B70E6E7C0468C010020E15B00003F
:10272000300100202D010020480200202C01002053
:10273000DB5B0000DD5B0000DF5B000008B50248EA
:1027400000F046FE08BDC0464C020020F0B508224D
:10275000047E426101220226174B9443B4430325B1
:1027600003602C4034333C2743603C430023047611
:102770008160C3630364441DE77F03619743B743EC
:102780003D4004263543C3610362E57782634363BA
:10279000C362836299420ED09A008A181532FF32C2
:1027A0001268002A04D144339B00C918486002E033
:1027B0000133102BF0D1F0BD885B000073B501230D
:1027C00000250322009301950A4904230A4801F0D9
:1027D000F7FD0A4E301C00F047F9094C094B201C4C
:1027E000311C08302360FFF7B1FF25656565A565DD
:1027F000246373BD300500208C0100204C020020B2
:1028000030010020285C000010B50F4CE121201C95
:10281000490201F075FD0320011C01F021F903219B
:10282000042001F01DF9201C084901F0B7FB0848FD
:1028300000F040F9013003D1201C064901F0AEFB45
:10284000142000F00BFF10BD8C010020EC5B000099
:102850004C0200200D5C000030B5031C99B089B219
:10286000DC68806803918021049106234021009355
:102870000591002308A9222501930691079202954C
:102880001A1C211C812300F075FBC0B219B030BDA9
:1028900030B5D2B28568C46889B001920A2000229E
:1028A000DBB289B2009002930391049205920692E2
:1028B0000792281C211C212300F05CFB09B030BDCD
:1028C00010B5031C88B0DB68D2B280680B2401927B
:1028D00089B2002203910094191C0292049205927D
:1028E00006920792212300F045FB08B010BD38B5D1
:1028F000049D03792A78DB07D207D20FDB0FD2B20F
:10290000DBB2041C934208D00368002A01D0DB68C4
:1029100000E09B68201C291C98472A78237992079D
:102920009B07D20FDB0F934208D02368002A01D007
:102930005B6900E01B69201C291C98472A782379D1
:1029400052075B07D20FDB0F934208D02368002A9F
:1029500001D0DB6900E09B69201C291C98470123FA
:10296000EB56002B03D10223EB56002B04D0236837
:10297000201C5B68291C98472B78237138BD704751
:1029800008B5826D012313438365FFF753FE08BD2D
:1029900008B5826D022313438365FFF74BFE08BD24
:1029A00008B5826D042313438365FFF743FE08BD1A
:1029B00008B50123CB56026DD31803650223CB560D
:1029C000426DD3184365836D002B02D0FFF70EFED6
:1029D00001E0FFF7E7FD08BD08B5826D01239A43CA
:1029E0008265FFF763FEFFF7CAFF08BD08B5826D79
:1029F00002239A438265FFF759FEFFF7C0FF08BD27
:102A000008B5826D04239A438265FFF74FFEFFF7F6
:102A1000B6FF08BD031C0022006D1A657047031C39
:102A20000022406D5A657047036830B5002B13D102
:102A3000002017E01468002CFAD00D682C78856807
:102A4000EB1A0568EC544368013B43601368013B93
:102A500013600B6801330B604368002BEAD1856873
:102A60004560012030BD0000104B0122C2610822E8
:102A700030B50360041D002382603C220361836142
:102A80000362446143600273C218002101251033C0
:102A90009162D56211635462F02BF5D1AA23AB4049
:102AA000C154034B11221A6030BDC046505C000077
:102AB0000000002010B5AA2300245B00C45401F0DC
:102AC00069F8201C10BD0000F7B5171C00911E1CF2
:102AD00000F0BEFD2349002541180191381C0099E2
:102AE00001F0ACF92C1C00F0B3FD0199814236D9FC
:102AF00001F0F2F8022832D1381C009901F0CAF92D
:102B000000282AD118487B011A18107A042108429B
:102B100005D011720134002E01D0B4421BD0134AEB
:102B2000D11808318978880704D50134002E01D0E6
:102B3000B44210D0D2180832D2880820024202D003
:102B40000135032D0CD0094A0120D3180833DB8846
:102B50000342C8D004E0022002E0002000E0FF2091
:102B6000FEBDC04610270000FF500041380B00207A
:102B7000F0B50C1C87B019781E1C05920023626802
:102B8000337003922368227A049002915B019107CB
:102B900004D5324A9B1801225A7103E02F490122C1
:102BA0005B181A7123680C995A012D4B0025D150DE
:102BB00022682B4F5301DA590498AA18DA510121DF
:102BC000059B2268FFF780FF2368012814D125495F
:102BD0005B015B18DA79277A0240111C0140490039
:102BE000019102218F43019939432172002A01D0BA
:102BF0009871DDE75871DBE7002805D0174A5B01C3
:102C00009B1810225A7127E014495A015B015B1886
:102C1000BF1840217A681971029D9204920C954266
:102C200000D9151C3378039AEB18DBB23370954248
:102C300002D302998B42BBD322680A4953015B1825
:102C4000D979012211409140227A022082430A431D
:102C5000227210229A71002007B0F0BD005100418D
:102C6000380B0020FF500041F0B54F6895B01D1C97
:102C70007B1E03900C1C0292DA203F2B56D80023B7
:102C8000AB4206D21A99CA5C04A9CA540133DBB21A
:102C9000F6E72368227A5B01D10704D5244A9B1802
:102CA00001225A7103E0224901225B181A710020A7
:102CB000002D2FD02E1EBE4200D93E1C2068311C94
:102CC00004AA01F0A7F8039802212268029BFFF7EB
:102CD000FBFE00281CD0022804D0082826D001289A
:102CE00018D103E0029A012A20D113E02168114A89
:102CF0004B019B18DA79217A02400092814302400D
:102D00000A432272009A002A01D0987100E058719B
:102D1000AD1BCDE72168064A4B019B18217A9A79B1
:102D2000012399431A400B1C1343237215B0F0BDC5
:102D300000510041FF500041F7B5141C0090019173
:102D40001D1C0026019A009B9700DF19FC37B8690B
:102D5000211C03685A68089B94462A1CE047C3B2AA
:102D6000E02B16D1002C09D1234B80221989920027
:102D70000A431A81662000F071FC11E0231C009ABE
:102D800044339B00D3185868291C03685B69984733
:102D900006E0002B04D0F3B2022B0FD9C0B229E019
:102DA000B869211C03682A1C1F68089BB847C3B276
:102DB000071C002B12D0F3B2022B04D8642000F0C1
:102DC0004DFC0136BEE7002C0AD10B4B802219893D
:102DD00092000A431A81662000F040FCF8B209E034
:102DE000009B4434A4001C196068291C03685B69BB
:102DF0009847F3E7FEBDC046005000410123826AB8
:102E00008A4201D1181C05E00133DBB21030102BCF
:102E1000F5D100207047F8B51F1C0023151C041CB9
:102E20000E1CCA099A4236D1072F34D89D4202D0CF
:102E3000016907292FD0201C0021FFF7DFFF0023A5
:102E4000984228D09E4212D101309D4207D0030102
:102E5000E31841229A6023690133236103E00301EF
:102E6000E31801229A6000012418A36813E00722E6
:102E70001640F600002D07D021694023013133436D
:102E80000A402161134303E0331C174093433B4343
:102E900000012418A361181CF8BD10B5041C1430DF
:102EA00000290AD0201CFFF7A9FF0023984203D075
:102EB000013000012418231D181C10BD10B5141C6E
:102EC000FFF7EBFF00280FD00368002B09D08268C2
:102ED0000021914205D01868A04204D00C33013182
:102EE000F7E7002000E0181C10BD70B50D1C161C83
:102EF0001C1E06D0FFF7D1FF002804D070C00020B0
:102F000002E0D82000E0D62070BD0000F8B5051C16
:102F10000C1C171C1E1CFFF7C0FF002826D00368DE
:102F2000D720002B23D0281C211C3A1CFFF7C6FFFA
:102F30003060002818D0037A9B080F2B03DC012295
:102F40009A40131C01E080231B02069A013B136088
:102F5000036807495B01CB1899897F22144091438C
:102F60000C439C81002002E0DB2000E0D620F8BD6D
:102F7000380B0020F0B58FB0029314AB1B78051C02
:102F8000039315AB1B78171C049316AB1B781B9E81
:102F9000059317AB1B88069318AB1B880793002378
:102FA0000893099309AB009308ABFFF7AFFF041E2A
:102FB00070D1402100F096FE041E6BD1039B0CAA39
:102FC00053700299059B1170D3700499079B9170FF
:102FD000D3800699089B91801868082100F01AFF99
:102FE000211C281C3A1C099BFFF76EFD041E51D1C1
:102FF00002991A9ACF09002A37D00899099A0B7AB0
:10300000002F27D0022423430B72199B281C0A93FC
:103010001A9B00930AABFFF7ABFD012210420CD0C4
:10302000089B1D6869011D4D491989790A405100A5
:103030001A7AA2430A431A722BE0002829D1002EE3
:1030400013D033680A991C681A9A0B900BAB301C8A
:10305000A0470AE0012003430B721A9B281C00932F
:10306000199BFFF701FE041E14D1089B186800F09D
:10307000C7FE089B281C19684A01084952180121FB
:1030800051717A427A410221891A1A68099BFFF725
:103090001BFD041C201C0FB0F0BDC04600510041B8
:1030A00030B5012589B0029505939DB206240C9B8D
:1030B00000940024069301940394049507948023BC
:1030C000FFF758FF09B030BD30B589B00C9D06241C
:1030D0000094ECB201949DB2059302240D9B0294DE
:1030E000002406930394049507948023FFF742FF7E
:1030F00009B030BDF0B59BB00AAC099300930194C0
:103100000923071C0E1C151CFFF7DEFF002814D135
:10311000099A06230093D3B20193022303900293EA
:103120006388381C049340230593209B06940793DF
:10313000311C2A1C8023FFF71DFF1BB0F0BD10B50A
:10314000DBB288B00193052400230094029303931B
:103150000493059306930793FFF70CFF041C962036
:10316000400000F07BFA201C08B010BD10B5DBB2A7
:1031700088B00193092400230094029303930493DD
:10318000059306930793FFF7F5FE08B010BD30B521
:1031900085B0041C1D1C002003AB0290039000931B
:1031A000201C02ABFFF7B2FE002807D1089B201CB1
:1031B00000930299039A2B1CFFF7DAFC05B030BD8F
:1031C000F8B5041C0F1E28D04B1C1B01C3181D7A18
:1031D0006E076D06760FED0F012D0FD16B1C1A01D6
:1031E000A218127A9206520FB24211D01D1E0F2D54
:1031F000F4D92369B34201D1013E26613F01E719A9
:10320000002201210434BA61F9613A627C6104E070
:10321000201C291CFFF7D4FFE0E7F8BD10B5041C03
:1032200041290ED1011C031CF03101200022D8627B
:10323000201D9A621A63586210338B42F5D12261C5
:1032400005E0FFF7DBFD011C201CFFF7B9FF10BDF7
:1032500070B51E1C031C041C151C143301D1D62090
:1032600026E04369002B22D0331C5A1E934103628F
:1032700000222B1CFFF7CFFD051CD420002D17D0FA
:10328000201C291CFFF709FE0028E8D00021C66099
:103290000A1C201C2B1CFFF752FF061C0020864234
:1032A00006D0201C291CFFF7B9FF301C00E0D720F6
:1032B00070BDF0B591B002930823099308AE3C238A
:1032C0003372036805920022049108921B68111C56
:1032D000071C9847051CD620002D77D02B68029A32
:1032E0000BAC0021EA6003932E600A1C12230094A9
:1032F000381CFFF7D5FEE279031C7260039A2A603E
:10330000002B63D122891D1C0392628906928A22B6
:1033100024795200BE180794341C2068002806D176
:1033200001350434102DF8D1341C002514E0036855
:103330001B6998470028F3D1206803990368069A0F
:103340009B699847002829D1206807990368DB69A1
:103350009847002822D1E3E72068002813D00368AB
:103360001B69984700280ED1206803990368069AC4
:103370009B699847002806D1206807990368DB6994
:103380009847002815D001350434102DE4D1381C9D
:103390000499059A029BFFF75BFF17E0029B381C1C
:1033A0000093291C049A059BFFF7C6FCD128B7D0CF
:1033B0000CE0029A059B0092381C049A291CFFF726
:1033C000BBFC0823021C9A43D12ADCD011B0F0BD0B
:1033D000F7B500230193061C00F07EFC0190019BD1
:1033E000022B10D0032B02D0012B19D102E01322A3
:1033F000444B06E0434BF02219680A40102A0FD0D4
:1034000011221A600CE03F4CF02322681340102B6D
:1034100006D100F01DF93C4BC83018602023236012
:10342000002573191533FF331868002802D003688C
:10343000DB6898470435402DF3D1324C2368271CB4
:10344000302B26D004D8112B09D0202B19D057E0CF
:10345000502B39D0802B43D0402B51D121E000F0AC
:1034600099FB002433191533FF331868002802D064
:1034700003689B6898470434402CF3D112233B60C7
:103480003EE000F0E5F8204B1B68C01A38D430232A
:1034900035E01E4B8022198992000A431A8125606B
:1034A0002EE01A4B0822998B114229D09A83198950
:1034B000802252000A431A815023236000F0C8F88A
:1034C000114B143018601BE0104B9B8B590717D51C
:1034D0000D4B1D6800F0BCF8802385420FD30FE030
:1034E0000021301C0A1C0B1CFFF7E3FE002805D04E
:1034F000D22805D0064B1860A02300E0902323605B
:10350000F7BDC04600000020A80300200050004185
:10351000A403002008B5024801F032F808BDC046F7
:103520006804002008B5024801F02AF808BDC0462A
:10353000AC030020F7B5164F1649381C00F0D4FD37
:103540001549164800F0D0FD1549164800F0CCFD8D
:103550001549164800F0C8FD1549164800F0C4FD8D
:10356000154D03260124281C144900F0BDFD391C0B
:103570000096231C01940022114800F021FF0096C0
:10358000291C01941F221E230E4800F019FFF7BDCD
:103590002805002000080042000C00422C050020F5
:1035A00000100042300500200014004224050020D5
:1035B000001800423405002038050020001C00429D
:1035C00068040020AC030020FEE7000008B5034BB0
:1035D0001B68002B00D0984708BDC0463C05002062
:1035E00038B50F490F4CA14204D100F055F800F056
:1035F00081FC0BE00C4D8D42F7D00023CA18E8186F
:10360000A24204D2006804331060F7E7FEE790425C
:10361000EBD0064B064A9342E7D2002204C3F9E7F7
:103620000000002010010020406100001001002077
:103630003C0C002008B500F02CF8002801D100F067
:103640001DF808BD014B18607047C0463C050020BE
:10365000014B18687047C0464005002070B5041E35
:1036600008D0054B1D681E1C00F012F833685B1B68
:10367000A342F9D370BDC0464005002008B5034BF6
:103680001A6801321A6000F0F5FC08BD4005002000
:10369000704700207047000070B5494A1E215368EA
:1036A00002208B430343474953608B69082423431B
:1036B0008B61454C454B9C829C8A20439882101C10
:1036C000DA689407FCD5424A012414701478E5079F
:1036D00004D53F4C647864B2002CF7DB012494607D
:1036E000547864B2002CFBDB3A4D394C6560547859
:1036F00064B2002CFBDB8225354CED0165805478EB
:1037000064B2002CFBDB02249C84DC68E606FCD55A
:10371000314D2E4CE562DD682C4CEE06FBD5A58CB8
:103720002E4E3543A584DD68284CEE06FBD5A58CCE
:1037300002263543A584DC682506FCD5234CE468C5
:103740006606F8D5DC68E506FCD50024946054785C
:1037500064B2002CFBDB224D1D4C656055781C4C7F
:103760006DB2002DFADB1E6A1E4D35401D621D6ACA
:103770008026B5431D620323A3601B4B636053780F
:103780005BB2002BFBDB00230B72184A4B728B726F
:10379000CB72174BFF211A60164B174A1B68126831
:1037A0005C01D20E214011439A06520F12020B1CEB
:1037B0001343124A1385436880221343436070BD4C
:1037C00000400041000400400C06000000080040DA
:1037D000000C004001050100B905FF7D040A00004E
:1037E00000070300FFFCFFFF03060100006CDC0282
:1037F000040000202460800020608000004000421F
:10380000314BFA21186810B5890002F083F82F4B6C
:103810000138984224D82E4A2E4B5060186AC02195
:103820000002000A0906014319620024072194607E
:103830001160196A80220902090A12060A431A62F3
:10384000254BFC211A6A0A431A62196AFC2292016A
:103850000A431A62196AA022D2020A431A6200E0DD
:10386000FEE7201C0021013400F070F8142CF8D180
:103870001A4C63785BB2002BFADB194B6380194B4F
:103880005A7ED209012AFAD0E422D2009A803F223D
:10389000DA70597E134AC9090129FAD0C0235B01A5
:1038A00000201361907000F023F863785BB2002B66
:1038B000FBDB0D4A094B5A800C4BDA79D209012AFD
:1038C000FAD041225A7010BD04000020FFFFFF0013
:1038D00010E000E000ED00E000040040000C0040BB
:1038E0001E4000000040004221400000004800420D
:1038F00000B5144A517E131CC9090129F9D00138B9
:10390000042813D81969104A0A401A615A780F21FD
:103910008A4301F0F5FF030509070300012102E0D6
:10392000032100E002210A435A700AE01169F023E2
:103930001B050B43136153780F218B4302210B436B
:10394000537000BD00400042FFFFFFF010B5182487
:10395000021C201C5043274B1818007A40B201303B
:1039600046D0032944D8081C211C01F0C9FF0233AA
:103970001121624398569A18C3011F4852681B18B8
:1039800099184031022008700121914059602FE0C0
:103990006243985618499A185268C3015B189918DF
:1039A00040310620087001219140596099611FE063
:1039B00051435A56104859184B68D2011118C8186B
:1039C0004030062404700120984048600B4952188A
:1039D00050600DE0624398569A18C3010648526839
:1039E0001B189918403102200870012191409960FC
:1039F00010BDC046605C000000440041104400411E
:103A000018235843134AF0B5131808241C570134DF
:103A10001FD08256104ED2015D6801249019231CDC
:103A20008668AB401E420BD10E1C771EBE4140196A
:103A300034404030A50004780426B4432C4304707D
:103A4000002903D105495218536002E0024E921931
:103A50009361F0BD605C00000044004110440041EF
:103A600018224243F8B52D4D0824AA181457031CF8
:103A7000621C50D0481C00240C284CD801F040FF98
:103A8000071E1E1E1E1E1E1E1E0A0A0A0A000124F2
:103A9000644240E0092902D1181C002103E00A29F0
:103AA00004D1181C0221FFF751FF23E000240B2949
:103AB00031D1181C0121FFF749FF2CE01822534394
:103AC000EA185268EB560120141C04405508DB012B
:103AD000002C11D0124C1B195D1930352E780C01B9
:103AE0000F21314021439A18C9B22970403213780E
:103AF0001843107000240EE0094E0F279B195D1922
:103B000030352E789A18BE433143C9B229704032FD
:103B1000137818431070201CF8BDC046605C00008C
:103B200000440041194B1A78D2092DD09A8B0421F8
:103B300092B20A420BD108210A420DD140210A4219
:103B40000AD120210A4207D110210A4201D09983CB
:103B50000EE080210A4201D0998311E0802180206B
:103B6000490080000A4205D099839982988318837E
:103B7000022206E0024208D0988398829983198332
:103B80000122034B1A7000E0FEE77047005000412D
:103B90004405002038B54548FFF754FD444B20212B
:103BA000DA691C200A43DA610621FFF759FF1D205C
:103BB0000621FFF755FF3F4B3F4A5A805A7852B2D1
:103BC000002AFBDB3D4C0122237813432370A278AB
:103BD0003A4BD007FBD4197882220A431A7019781D
:103BE00080220A431A70A378022BFCD034490B6858
:103BF0005A0B1F231A409A4200D105221A40900105
:103C0000258D304A2A40024322850868820C1340E1
:103C10001F2B00D11D23208D1F22134090430343EF
:103C200023850B680722DB0D1340934200D1032349
:103C30001340218D1A03244B0B4013432385237813
:103C400004221343214A2370626223890C218B438F
:103C50002381101C0023C11800220A602033802118
:103C600089018B42F7D11A4B1B2001211A70FFF7F3
:103C70006DFE1B200121FFF7C3FE80235B00238321
:103C800023831023238380239B0023832289802383
:103C9000DB0013432381C1220E4B92009958090285
:103CA000090A995080221A6038BDC046253B0000A1
:103CB00000040040000C004006400000005000419D
:103CC000246080003FF8FFFFFF8FFFFF380B0020CC
:103CD0004405002000E100E0014B18787047C04621
:103CE000440500200E4B3820197B042319400D4B4E
:103CF0004A4251415A7849428243082002435A704D
:103D0000094B0A4A988902409A81C0229205586854
:103D10001140074A02400A4300205A607047C046DB
:103D200000500041FF500041380B0020FFF0FFFF22
:103D3000FFFFFF8FF0B50E1C85B0351C03902B499B
:103D40000120083501936D0184460C986C5C634634
:103D500018400427BC4380002043254F685470015D
:103D6000C41963783F27BB43637067780B9B3A4362
:103D7000D2B26270DAB222716B5C019F032293436C
:103D80003F0605D5624613436B544023A37104E0FC
:103D9000022213436B54402363710A7B154D0423A5
:103DA00013402D185A4253415B42281C0021202207
:103DB00003241C4001F037FEA88903997F22904319
:103DC0001140021C0A43AA810F22164032020A49FE
:103DD000AE8923070E401643AE816C68074A012066
:103DE00014401C436C6005B0F0BDC046005000415B
:103DF000FF500041380B0020FFF0FFFFFFFFFF8F57
:103E0000034B4001181843689B0B9B0343607047AA
:103E1000380B0020074B4001C250890418188B0C46
:103E20004168890B8903194341604268024B134082
:103E300043607047380B0020FF3F00F0F0B5021CD4
:103E4000124C083253011F5D03250E1CAF432E4058
:103E50003D1C35431D55002904D10D494001401832
:103E600010230AE0012904D108495B184021197187
:103E700006E0074B4001C018012303724023837101
:103E800002495201521810231371F0BD0050004135
:103E9000FF50004110B5012910D0002902D002299D
:103EA00016D021E0114A400183181C7A1022081C08
:103EB00014421AD01A729A71012016E00B4A40017E
:103EC00083181A7A00200A420FD019721022F2E7E2
:103ED000064B4001C218117A01230020194204D078
:103EE000102113729171E7E7002010BDFF500041CF
:103EF0007047000010B5FFF783FC01F05BFDFFF792
:103F0000F7FF0120FFF7AAFB084C201C00F058FE29
:103F1000201C00F0CDFEFEF777FCFEF70FFC044BF3
:103F2000002BFAD000E000BFF7E7C046F3090020FD
:103F300000000000F7B58A18061C0D1C01920C1C2D
:103F4000019B671B9C4207D0336821781B68301C9B
:103F5000984701340028F3D1381CFEBD38B5051C44
:103F60000C1C081E07D001F0CDFD2B68021C5B68FD
:103F7000281C211C984738BD08B5FFF7EFFF08BD86
:103F800008B503681B68984708BD000008B50249DA
:103F9000FFF7E4FF08BDC0468060000038B5041C90
:103FA000FFF7DCFF051C201CFFF7F0FF281838BDC9
:103FB000F0B58DB0161C0BAB002201900C1C1A70D2
:103FC000012E00D80A266D462B35201C311C01F02D
:103FD000E5FC201CCFB2311C01F09CFC291C041C08
:103FE000092F01D8303700E03737FFB22F70013D7D
:103FF000002CEAD10198FFF7B1FF0DB0F0BDF8B584
:10400000041C0D1C161E04D10368C9B21B68984716
:1040100012E00A2A0DD100290ADA2D21FFF7B0FF9C
:104020006942071C321C201CFFF7C2FFC01903E0C5
:1040300000E0D2B2FFF7BCFFF8BD08B5FFF7DFFF25
:1040400008BD38B5041CFFF7DAFF051C201CFFF77C
:104050009DFF281838BD0000014B18607047C0460E
:1040600008000020024B012252421A607047C046ED
:1040700008000020154A1368581C25D0013B136026
:10408000002B21D172B6124A124B04329A4207D841
:10409000BFF34F8F104A114BDA60BFF34F8F11E01F
:1040A0000F4B197DC807FBD5188B2021FF319208D3
:1040B000520001431983DA610A4A1A801A7DD10736
:1040C000FCD5E5E7C046FDE77047C0460800002084
:1040D00000200000030200000400FA0500ED00E0EB
:1040E0000040004102A5FFFF01607047F7B508AC32
:1040F000267804689D1E27686C1EA541ECB29207C5
:1041000005683A4327063A432A6002680725294092
:104110005068B501002C00D05C03294301430C43D7
:104120005460F7BD30B50368C0251C68AD031205A7
:104130002A402243C024A4020904214011431960EB
:1041400003685A6814435C6030BD036801211A6833
:104150000A431A600268116801231942FBD1D16930
:104160001942F8D17047036802211A680A431A609D
:104170000268D3699907FCD4704703681A7ED10797
:1041800002D41A7E9107FCD57047036800225A8337
:1041900070470368187E4007C00F70470368187E99
:1041A000C009704703688022197E52420A431A767A
:1041B00070470368187E0123184070470368188D04
:1041C000C0B2704703681A7E01200242FBD01985F5
:1041D0007047036801229A757047036801221A75B7
:1041E000704700000368224A30B5934211D0214A3B
:1041F000934211D0204A934211D0204A934211D0C9
:104200001F4A934211D01F4A934230D10E231922E4
:104210000DE0092314220AE00A23152207E00B23EC
:10422000162204E00C23172201E00D231822DCB231
:10423000154901209B08A0409B0008605B180320E3
:10424000C021890004405D58E000FF248440A5435C
:104250002C1CC0258540281C204358508023DB019E
:104260001A430A4B5A805A7852B2002AFBDB30BDFF
:1042700000080042000C00420010004200140042FE
:1042800000180042001C004200E100E0000C004069
:10429000F8B5041C151C0E1C1F1CFFF7A3FF201CE7
:1042A000FFF753FFB1001C220A4069072368090C7D
:1042B0000A431A60226884239375012E1AD10821BB
:1042C000012D00D110210C4B79431868C00001F07A
:1042D00021FB236807219A890140D2044903D20CAB
:1042E0000A439A8123680004C20C9889400B40035A
:1042F00010439881F8BDC04604000020012070479B
:1043000008B50368014A1B6A984708BD13040000FA
:10431000826D436D9A4203D0836DC018007D01E029
:1043200001204042704710B5041C0069FFF70DFFE3
:104330000023221C63659C32A365A03413602360B4
:1043400010BD0000F0B587B001930CAB1B780025C1
:1043500002930DAB1B78402603930EAB1B78041C15
:1043600004930FAB1B780F1C0593FA239B0083600B
:10437000124B0092083303604560291C321C143034
:1043800001F051FB201C6565321CA565291C5C30C1
:1043900001F049FB009A231C9C331D605D6027617E
:1043A0001A72019A201C5A72029A9A72039ADA724D
:1043B000049A1A73059A1A7707B0F0BD906000004E
:1043C00030B585B0041C08A8057809A800780095C8
:1043D0000190FF2002900390201CFFF7B3FF201CE8
:1043E00005B030BDF023081C184030384342584116
:1043F0007047F0231B01194080239B0099420CD089
:10440000C0239B00994206D080235B00052099427F
:1044100004D0002002E0072000E0062070470F23B0
:104420001940012905D002394B424B410220C01AE4
:1044300000E0002070470000F0B5031C85B0039138
:10444000A433041C182718783B1C4343344E08211E
:10445000F3185956151CFFF703FB231CA5331878D6
:104460003B1C43430821F3185956FFF7F9FA231C64
:10447000A7331B78022B0AD1231CB8331878FF28E6
:1044800005D047430821F7197956FFF7E9FA271CA9
:10449000A8373878FF281AD00121FFF757FA3B7860
:1044A00018225A43B3561F4FDB01211CAC31D819D7
:1044B00008601D49B6185B18211C7268B0310B608A
:1044C000012191400A1C211CB4310A601A600121AB
:1044D0000A1C039B2069FFF7DBFE291C201CFFF749
:1044E00088FF291C071C201CFFF799FF291C061CAC
:1044F000201CFFF777FF391C0090331C2069012234
:10450000FFF7F4FD231CA7331978013B1A782069C3
:10451000FFF708FE2069FFF726FE05B0F0BDC04694
:10452000605C00001844004114440041026C436C7C
:10453000D01A00D54030704710B5041C201C5C30E8
:10454000FFF7F4FF0028F9D12069FFF716FE10BD30
:1045500008B51430FFF7EAFF08BD026C436C9A42BD
:1045600004DB036C406CC01A3F3003E0426C036C08
:10457000D01A0138704708B55C30FFF7EEFF08BD70
:1045800038B5041C0069FFF704FE00281FD020691D
:10459000FFF714FE636D3F2201331340A26D934277
:1045A00003D0626DA21810756365231CA8331B78B5
:1045B000FF2B0CD0201C1430FFF7CFFF092806DC9E
:1045C000231C221CAC33B4321B6812681A602069A9
:1045D000FFF7EFFD002820D0251C5C35281CFFF7D5
:1045E000A5FF031C2069002B15D0231C221CA0331F
:1045F0009C3219681268914207D01A68A95C1A683F
:104600003F2501322A401A6001E001214942C9B226
:10461000FFF7D8FD01E0FFF7E0FD2069FFF7BEFDE1
:10462000002805D02069FFF7BDFD2069FFF7ADFD2B
:1046300038BD000070B5041C00690D1CFFF7B9FD02
:1046400000280FD0201C5C30FFF770FF002840D0FE
:1046500008E0EFF31083DA0723D4214B5A68D20520
:10466000D20D0BD1231C9C33211C1E68A0310A687B
:1046700001363F2006409642EBD01BE0103AD2B202
:1046800053B2002B08DA0F231A40083A154B920850
:104690009200D218536804E09B08C033124A9B0072
:1046A0009B582069FFF785FD0028DBD0201CFFF711
:1046B00067FFD7E71A680968013202408A4204D0CE
:1046C0001968201C5C3045541A602069FFF781FD91
:1046D00003E02069291CFFF775FD012070BDC0466D
:1046E00000ED00E018ED00E000E100E038B5826D7B
:1046F000436D041C9A4208D0836D3F22C3181D7D70
:10470000836D01331340836501E001256D42231C55
:10471000A8331B78FF2B0BD0201C1430FFF71DFF94
:104720000A2805DD231CB033B4341B6822681A60E4
:10473000281C38BD10B507230F220240141C0009A5
:104740003034092A00DD0734CC54013BF4D210BDCB
:1047500070B582291ED1C2B22A495301CB189D6976
:10476000294C80012C40C025AD052C439C61274C71
:104770000832201858610B68520199180C79802072
:10478000404220430871D15C7020814330200143B6
:10479000D15435E0002933D1C2B21A495301CB18A4
:1047A0009E68194DC0242E40A40526439E60184ED5
:1047B000800109683018083258605201505C0726A1
:1047C000B0430126304350549E6935402C439C61D0
:1047D0000E4C5C61505C7024A04310242043505464
:1047E0009C680C488A182040802464032043986009
:1047F00098684021800B8003986053790B43537174
:1048000070BDC046FC090020FFFFFF8F500600204E
:1048100014080020FF3F00F038B5041C08CC01212B
:104820001A78051C0A431A708022201C00215200AD
:1048300001F0F9F82B689A78D107FCD45C6238BD96
:10484000134BF0B51B6899035A029B01C90ED20E97
:104850005B0F1F2900D105211F2A00D11D22072B24
:1048600000D1032304688E01278D0A491F25394092
:104870003143218501682A400C8DAC4322430A85CF
:1048800002681903108D044B03400B431385F0BDE0
:10489000246080003FF8FFFFFF8FFFFFEFF31083DE
:1048A00003600123436072B670470368002B02D196
:1048B00062B6BFF36F8F704737B50569041C684651
:1048C000002D12D1FFF7EAFF019B013B03D3621DCC
:1048D000D57FEDB2F9E768460193FFF7E6FF0020C8
:1048E000854217D0206AE36913E0FFF7D7FF019BE9
:1048F0000025013B04D3221C34321578EDB2F8E7D1
:1049000068460193FFF7D1FF0020854202D0206B5B
:10491000E36AC01A3EBD0000436810B51A68037A06
:1049200001215B01D318FF339A7A0A439A72037A02
:1049300042685B01D318C2689C6891040B4A09095C
:1049400022400A439A60037A42685B01D3189A684E
:104950004021920B92039A6043681A68037A0833E5
:104960005B01D3181A790A431A7110BDFF3F00F09A
:10497000F7B50569041C0E1C171C6846002D1FD1D5
:10498000FFF78CFF019B013B5A1C06D0621DD17FB3
:104990005A1E00293AD0131CF6E768460193FFF728
:1049A00084FF0025E369BD4235D0226A934232D2AA
:1049B0005A1CE261A269D3181B7873550135F1E7DF
:1049C000FFF76CFF019B013B5A1C08D0221C3432BC
:1049D00015785A1EEDB2002D18D0131CF4E7684666
:1049E0000193FFF762FF0025E36ABD4226D0226BE8
:1049F000934241D322E0621D0021D17730321678F4
:104A0000581E8E4214D1031C5A1CF4D168460193DF
:104A1000FFF74BFF38E0226A934235D10023E36170
:104A2000012323616846FFF739FF019B013BEBE758
:104A30001170201C0193FFF76FFFF6E7226B934282
:104A400022D10023E36223616846FFF727FF019B21
:104A5000013B5A1CDAD0221C343200211170013281
:104A60001678581E8E4201D1031CF2E71170201CEB
:104A70000193FFF751FFEAE75A1CE262A26AD318DA
:104A80001B7873550135AFE7281CFEBD37B5436869
:104A9000027A1B68083252019A18041CD07901234B
:104AA000FF21184255D0D371A06865696268014042
:104AB000002D1FD14901521891688904890C216287
:104AC000216A002942D06361A36A68465360FFF7F8
:104AD000E5FE019B013B5D1C34D0621D0120D077B7
:104AE0002F3211785D1EC9B21218002915D111702C
:104AF0002B1CF0E74B01D3189A689204920C2263A6
:104B0000226B002A22D000226261A26968465A60A4
:104B1000FFF7C4FE019B013B12E001931070684651
:104B2000FFF7C3FE15E0221C343201201070621D15
:104B3000D17F5D1EC9B230320029EED111702B1C1D
:104B40005D1CF0D168460193FFF7AFFE201CFFF714
:104B5000E3FE37BD37B500236C46E3710734201CF4
:104B60000D1C00F013FE2B681818286000F0B6FE2C
:104B7000211C00F06DFE2B681818286020783EBDBF
:104B800003290BD10D4BB2221B685200985C802187
:104B9000494201439954022168220CE001290CD1B9
:104BA000064B92221B685200985C802149420143C7
:104BB000995402212822FF3299547047FC090020A1
:104BC00038B5304B00240121051C1A201C70FEF75B
:104BD000BDFE1A200121FEF713FF2B4B19200121E6
:104BE0001C70FEF7B3FE19200121FEF709FF274BC9
:104BF0002021DA6901200A43DA61254B06241A785C
:104C000002431A70234B0F221978914319701978B7
:104C10002143197020490C782043087019780A4004
:104C20001A701A7860210A431A701C4B1C4A5A8069
:104C30005A78D209FCD11B48FEF704FD1A4C201CFF
:104C4000FFF7EAFD201CFFF7FBFD23687F221978A0
:104C50000A401A701A7804210A431A701A890C2122
:104C60008A431A81C121114A890050580002000A62
:104C70005050802111601A7802210A431A700123D2
:104C80002B7038BD10080020F809002000040040F7
:104C9000584400413C44004159440041000C00404C
:104CA00006400000D9560000FC09002000E100E0A9
:104CB0000078002810D0094B01211B681A898A430B
:104CC0001A811A8B08210A431A831A8B04210A437A
:104CD0001A83034B00221A607047C046FC0900206B
:104CE000000B00200F4B9A69920B92039A611B688C
:104CF0000222FF331A7298798022524202439A713B
:104D00001A7A9007FCD5084B081C997A7F2210402C
:104D1000914301439972997A802252420A439A72CE
:104D20007047C046FC0900200050004110B50B79C7
:104D30000C1C002B0BD1081C00F036FD002804D100
:104D4000094B9A69920B92039A6101200BE000F0E3
:104D5000C5FD211C00F0B0FD0028F6D1024B9A6978
:104D6000920B92039A6110BDFC090020F7B50E1C4E
:104D7000832A18D1CAB235495301CB189C693448EB
:104D8000B6012040C024A405204398613148083270
:104D900086195E610B685201D15C7020814340200E
:104DA0000143D15450E0022A4AD12B4A89008D5840
:104DB0000191002D48D1382000F09EFC274B802720
:104DC0000360224B7F004360431D056286600561DE
:104DD0004561C561C760DD772F33041CC56205637B
:104DE0001D70381C5D7000F00BFEA061381C00F0D7
:104DF00007FEFF2315491E407601A0628E19B16897
:104E0000134A07250A40C02189050A43B260A168F8
:104E100062681940126808314901885CA84303257B
:104E200028438854A268616813405B01A269CB18CB
:104E30005A60201CFFF770FD019B07495C5003E09E
:104E4000081C111CFFF784FCF7BDC046FC090020BC
:104E5000FFFFFF8F50060020D4090020D060000023
:104E600038B5051C0124064BA200D258002A06D0F2
:104E7000211C281C0134FFF779FFE4B2F3E738BDA9
:104E80000C00002008B5084B8A00D058002803D039
:104E900003689B68984706E0C9B2044B490159185A
:104EA00088688004800C08BDD4090020FC0900201B
:104EB00010B50C1CFFF7E6FF00280CD0064BE1B242
:104EC0001B680831490159184A7980235B42134312
:104ED0004B710223CB7110BDFC09002070B5CAB222
:104EE000134B1448540189015918031959609D68DE
:104EF0001149083229408025AD02294399609968FB
:104F00004026890B890399600368510159180D796E
:104F100035430D715101591889794D06FAD5510162
:104F20005918C979CD07FAD50419A068C0B270BD67
:104F300014080020FC090020FF3F00F038B50C4B9E
:104F4000141C1B680D1CFF335A7940210A435A7107
:104F50000021FFF7C3FFA04200D9201C0023A34279
:104F600004D0044A9A5CEA540133F8E738BDC046DD
:104F7000FC0900201408002010B5C9B20C484901F2
:104F800043189A689204920C3F2A08D9141C9A6814
:104F9000403CA404920BA40C9203224302E09A68C2
:104FA000920B92039A6041188868C0B210BDC04647
:104FB000FC090020F0B51C1C2F4B85B01B68061C9B
:104FC0000D1C0292002B51D02C4F3978C9B2002908
:104FD00002D11920FEF714FD64233B70284BAA0070
:104FE000D058002805D0036802995B68221C9847B6
:104FF00040E0301C291CFFF745FFA04204D2301CC2
:10500000291CFFF73FFF041C291C301CFFF7B4FFCD
:105010001C4FE9B24A010191396803928B18FF33A2
:105020005A7A01210A4318495A72AB01C9180298E9
:10503000221C00F0EFFC002C1BD0301C291CFFF7B9
:1050400021FF002815D1019B3A6808335B01D31872
:1050500019794020014319710121D971039953181D
:10506000FF339A7A01210A439A7202E001204042FA
:1050700000E0201C05B0F0BD000B0020F809002066
:10508000D4090020FC0900201408002013B56C4648
:105090000734221C0123FFF78DFF012801D120785E
:1050A00001E00120404216BDF0B51C1C3F4B85B00D
:1050B0001B680E1C0292002B6AD08023DB019C42ED
:1050C00066D83B4D2978C9B2002902D11A20FEF7D3
:1050D00097FC642300222B700092002C56D0354D93
:1050E000F7B22B6801933B1C0833019A5B01D3187C
:1050F0009B79DB091AD0304B3049186800F00AFC64
:105100002F4B1721584300F005FC3B1C0833019A34
:105110005B01D318DB799A0708D42A4B9A5D002AE1
:1051200038D1421E002835D0101CEEE7254B002256
:105130009A55251E3F2D00D93F25234AB301D31888
:10514000181C02992A1C039300F064FC194A7B0185
:10515000D318039AA9045A619A69890C920B920395
:105160000A439A613B1C019A08335B01D31802225F
:10517000DA715979802252420A435A71009B029A8D
:105180005B1952190093641B0292A6E700980BE08A
:10519000012008E001229A557B01ED18AB69101C33
:1051A0009B0B9B03AB61404205B0F0BD000B0020A0
:1051B00010080020FC0900200400002040420F00DD
:1051C00070110100480600205006002070B50E4DF9
:1051D0001C1C8B01ED18281C0E1C111C221C00F03D
:1051E00019FCF6B20949760189194D618A69084BA3
:1051F000201C13408B618B69A2049B0B920C9B03B8
:1052000013438B6170BDC04650060020FC0900208E
:10521000FF3F00F0F7B5114B01901B780F1C141CD9
:10522000002B19D10E4B1E78002E01D1151C08E061
:105230000C4D0D482E888019361900F0EBFB2E809E
:105240000AE0002D08D0BA192B1C01980021FFF7A5
:10525000BDFF36182D1AF4E7201CFEBDF209002010
:10526000F00900204606002046050020F8B50E1C77
:1052700000AF151E012D28D9D31DDB08DB006A46BF
:10528000D21A9546081C00F03DFC01306C464000E7
:105290000323207063700222AA420ED23378002BBF
:1052A0000BD0511CC9B20136A354A94204D000232B
:1052B00002326354D2B2EFE72A1C0548211CFFF7E3
:1052C000A9FF431E9841C0B200E00020BD46F8BDD2
:1052D000F309002008B5044B00221A70034B04495F
:1052E0001A88FFF797FF08BDF00900204606002046
:1052F00046050020F0B5204A87B001230026009122
:1053000002A91370051C0296FFF724FC03AC0927C1
:1053100001903A1C201C311C00F085FB02236370B5
:10532000A023E371FA232372029B0122DB1963801D
:10533000019B62712371104A009B27701670BB425B
:1053400005D1281C211C1A1CFFF764FF11E00B4B30
:1053500001221A700A4B211C3A1C281C1E8002963E
:10536000FFF758FF281C02A9FFF7F4FB281CFFF7E2
:10537000B1FF012007B0F0BDF2090020F0090020C4
:105380004606002070B5CE7892B0051C0C1C022E8B
:1053900008D1C9882D48FFF7ADFF031C581E834173
:1053A000D8B251E000F09AFA211C00F066FA002809
:1053B00003D0C3171B1AD80F46E0012E04D1E28890
:1053C0002349112A3BD837E0032E3DD1A278002A89
:1053D00005D12049E2880B7893422DD82FE0022A8C
:1053E00003D1A279281C1C4904E0012A05D1A27925
:1053F0001A49281CFFF73AFF26E0032A24D1184B4C
:1054000001A91868FFF796F9164B03A91868FFF76A
:1054100091F9154B05A91868FFF78CF9134B07A9EB
:105420001868FFF787F900F059FA09A900F035FA72
:10543000A279281C01A9DDE7D2B2002A00D10A789E
:10544000281CFFF7E7FE012012B070BDF309002011
:10545000F0600000EC60000002610000E06000000D
:105460000CA0800040A0800044A0800048A08000E4
:1054700073B5051C48780C1C0B2878D800F040FA4E
:10548000081C7728773E4306474B686F00206FE083
:10549000097801AA002903D111705170281C09E074
:1054A000002313705370334B1B78012B00D1137002
:1054B000281C002102234FE08A780023012A04D10E
:1054C00001AA137053702C4BEEE72A4A137049E07F
:1054D0008E78012E07D1284B01AA00211E70117071
:1054E000281C331C38E0002E08D1224A01231370F7
:1054F000224A9169890B8903916138E0A178281CBF
:10550000FFF7F0FB33E0281CFFF73CFF30E0281CDE
:1055100000211B4A1FE00A780020D30628D1281C4E
:10552000FFF79EFCA2781549154B02241A600A6801
:105530002A23FF33D05C2043D0544A20FF30145C30
:1055400001231C4314548A69920B92038A610EE072
:105550000C4A281C00210123FFF738FE07E08A7857
:10556000084B1A60054B9A69920B92039A610120CD
:1055700076BDC04645050020F1090020FC09002049
:10558000000B0020F4090020F8B54B4B071C1C78D9
:10559000002C00D08FE0494D2868838B19070ED569
:1055A000201C211CFFF7D4F82B6810201A1CFF3296
:1055B000917A01439172424A146008229A832B68BF
:1055C0009A8B50071FD504229A833E4B1A78002AE3
:1055D0000AD01A78013AD2B21A701B78002B03D184
:1055E0001A200121FEF70CFA374B1A78002A0AD04C
:1055F0001A78013AD2B21A701B78002B03D1192005
:105600000121FEF7FDF92B68FF331A7AD10626D562
:1056100010221A725A7940210A432C495A710A7889
:105620006023381C1A4202D1FFF722FF01E0FFF786
:105630007DFB002806D02B688022FF3399795242E7
:105640000A4301E0224B20229A712B68FF331A7A19
:10565000500604D540221A72597A0A435A722968B0
:10566000FE230E8C00241E40E1B2002E23D0321CFB
:10567000012322411A4216D0221C28680832520106
:105680008218D079184203D1D279DA401A4207D071
:10569000104BA200D058002809D003681B68984717
:1056A0000123A3409E430134092CDDD103E0381CC3
:1056B000FFF766FAF4E7F8BDF0090020FC090020C6
:1056C000000B002010080020F8090020140800201A
:1056D000FF500041D409002008B50248FFF754FFED
:1056E00008BDC046F3090020014A024B1A6070470A
:1056F00000500041FC09002008B500F081F908BD08
:105700003F20704713B502686B46D9710733546860
:10571000191C0122A04716BD08B500690221FFF738
:10572000B1FB08BD08B500690321FFF7C1FB08BD47
:1057300038B50D1C041C131C006903212A1CFFF73B
:10574000B3FC002801D10123636038BD10B5054CBE
:1057500023685A1C04D103685B6998472060031CC6
:10576000181C10BD84000020074A08B51368591C96
:1057700004D0012149421160181C03E00069022194
:10578000FFF784FC08BDC0468400002008B50378FC
:1057900003490233037042220248FFF73BFD08BD74
:1057A00040000020F309002010B50178031C427866
:1057B0000020A12908D1212A2FD1184818490722F1
:1057C000FFF728FD012028E0212926D1202A05D134
:1057D000134907221148FFF7B1FB04E0222A10D138
:1057E0009A780F4BDA710E4B96221968D2009142CB
:1057F00010D1DC7901231C400CD1FA20FEF72CFCDF
:105800000AE0232A09D1DA789B7812021A43054B61
:105810001A6002E0FEF726FC002010BDF30900200C
:10582000340000203C000020064BFA2189009960DA
:10583000054900220831196004495A6019611A7635
:105840007047C046040B002010610000F3090020DF
:1058500070B544680E1C0025002C09D02368201C5C
:105860005B68311C9847002804DB2D18E468F3E7D7
:10587000281C01E00120404270BD38B544680D1C71
:10588000002C08D02368201C9B68291C98470028FE
:1058900002D1E468F4E7201C38BD38B544680D1C1B
:1058A000002C07D02368201C291CDB689847E4687B
:1058B0002D18F5E72C7038BD38B544680D1C002C48
:1058C00008D02368201C1B68291C9847002803D196
:1058D000E468F4E7201C00E0012038BD064B0122FB
:1058E000196810B51140054805D10224047004243C
:1058F000447041601A6010BD280B0020200B00206E
:1059000002B4714649084900095C49008E4402BC52
:105910007047C046002934D00123002210B48842C9
:105920002CD301242407A14204D2814202D20901CE
:105930001B01F8E7E400A14204D2814202D24900EF
:105940005B00F8E7884201D3401A1A434C08A04292
:1059500002D3001B5C0822438C08A04202D3001B28
:105960009C082243CC08A04202D3001BDC0822433F
:10597000002803D01B0901D00909E3E7101C10BC63
:105980007047002801D00020C04307B4024802A19C
:105990004018029003BDC046190000000029F0D055
:1059A00003B5FFF7B9FF0EBC4243891A1847C0463A
:1059B0007047C04670B50E4B0E4D0024ED1AAD1069
:1059C0001E1CAC4204D0A300F35898470134F8E7FA
:1059D00000F0BAF8084B094D0024ED1AAD101E1C5A
:1059E000AC4204D0A300F35898470134F8E770BDE7
:1059F000EC000020EC000020EC0000200001002062
:105A000008B5034B011C186800F016F808BDC04625
:105A1000E800002010B50023934203D0CC5CC454AE
:105A20000133F9E710BD031C8218934202D01970AC
:105A30000133FAE77047000070B50323CD1C9D4386
:105A40000835061C0C2D01D20C2501E0002D3FDB92
:105A50008D423DD3204B1C681A1C211C002913D0F9
:105A60000868431B0DD40B2B02D90B60CC181EE029
:105A70008C4202D1636813601AE0486860600C1CB5
:105A800016E00C1C4968E9E7144C2068002803D193
:105A9000301C00F025F82060301C291C00F020F894
:105AA000431C15D0C41C03239C4384420AD12560A7
:105AB000201C0B300722231D9043C31A0BD05A42DF
:105AC000E25008E0211A301C00F00AF80130EED153
:105AD0000C233360002070BD300B00202C0B002005
:105AE00038B5074C0023051C081C236000F012F891
:105AF000431C03D12368002B00D02B6038BDC04667
:105B0000380C00200023C25C0133002AFBD1581E50
:105B100070470000094A1368002B0CD0181869461A
:105B2000884202D81060181C7047054B0C220120D7
:105B30001A604042F8E7034B1360EFE7340B002094
:105B4000380C00203C0C0020F8B5C046F8BC08BC5E
:105B50009E467047F8B5C046F8BC08BC9E467047E4
:105B60000000000000000000AF2100000000000065
:105B70000000000000000000AD2100000000000057
:105B80000000000000000000B52300001521000007
:105B90002D2100003D2300004D21000019210000AF
:105BA0001B2100001F2100005121000023210000C3
:105BB00059210000FCFFFFFF000000009D210000B4
:105BC0004D6F76653A20002C2000445241473A2020
:105BD00000507265737365643A20004C004D0052AA
:105BE0000052656C65617365643A20004D6F757392
:105BF0006520436F6E74726F6C6C65722050726FAB
:105C00006772616D2073746172746564004F5343F1
:105C100020646964206E6F742073746172742E0046
:105C20000000000000000000EF280000B129000083
:105C3000D929000081290000012A0000A1290000C3
:105C4000ED29000091290000000000000000000084
:105C50009B2E0000172E00001D32000000000000E7
:105C6000000000000B000000020000000400000023
:105C7000FF00FFFFFFFF0B00000000000A00000014
:105C80000200000004000000FF00FFFFFFFF0A0009
:105C9000000000000E0000000800000004000000EA
:105CA000FF00FFFFFFFF0E000000000009000000E2
:105CB000040000001C000000FF00010001000900BA
:105CC0000000000008000000040000001C000000AC
:105CD000FF00000000001000000000000F000000A6
:105CE000040000001C000000FF00010301030F007E
:105CF0000000000014000000050000002C0000005F
:105D0000FF00020002000400000000001500000077
:105D1000050000002C000000FF0003000300050048
:105D20000000000006000000040000001C0000004D
:105D3000FF00000100010600000000000700000055
:105D4000040000001C000000FF0001010101070029
:105D50000000000012000000040000001C00000011
:105D6000FF0000030003020000000000100000001C
:105D7000040000001C000000FF0000020002000000
:105D80000000000013000000050000002C000000CF
:105D9000FF000300030003000000000011000000EA
:105DA000040000001C000000FF00010201020100CD
:105DB00000000000020000000100000002000000DE
:105DC0000000FFFFFFFF02000100000008000000CC
:105DD0000100000018000000020000040004080098
:105DE0000100000009000000010000001800000090
:105DF0000300010401040900000000000400000089
:105E000001000000000000000400FFFFFFFF04008D
:105E1000000000000500000001000000000000007C
:105E20000500FFFFFFFF0500010000000200000069
:105E300001000000000000000A00FFFFFFFF020059
:105E40000000000016000000020000000400000036
:105E5000FF00FFFFFFFF060000000000170000002A
:105E60000200000004000000FF00FFFFFFFF07002A
:105E7000000000000C00000003000000040000000F
:105E8000FF00FFFFFFFF0C00010000000A00000000
:105E90000300000004000000FF00FFFFFFFF0A00F6
:105EA000010000000B0000000300000004000000DF
:105EB000FF00FFFFFFFF0B000100000003000000D8
:105EC0000B00000004000000FF00FFFFFFFFFF00C9
:105ED000000000001B0000000B0000000400000098
:105EE000FF00FFFFFFFFFF00000000001C0000009C
:105EF0000600000000000000FF00FFFFFFFFFF00A2
:105F00000000000018000000060000000000000073
:105F1000FF00FFFFFFFFFF0000000000190000006E
:105F20000600000000000000FF00FFFFFFFFFF0071
:105F30000100000016000000030000000000000047
:105F4000FF00FFFFFFFFFF0001000000170000003F
:105F50000300000000000000FF00FFFFFFFFFF0044
:105F60000000000016000000020000000000000019
:105F7000FF00FFFFFFFFFF00000000001700000010
:105F80000200000000000000FF00FFFFFFFFFF0015
:105F900000000000130000000200000000000000EC
:105FA000FF00FFFFFFFFFF000000000010000000E7
:105FB0000200000000000000FF00FFFFFFFFFF00E5
:105FC00000000000120000000200000000000000BD
:105FD000FF00FFFFFFFFFF000000000011000000B6
:105FE0000200000000000000FF00FFFFFFFFFF00B5
:105FF000000000000D000000040000000C00000084
:10600000FF000100FFFF0D00000000001500000070
:10601000050000000C000000FF000300FFFFFF0070
:106020000000000006000000040000000C0000005A
:10603000FF000001FFFFFF0000000000070000005C
:10604000040000000C000000FF000101FFFFFF0042
:10605000000000000300000001000000020000003A
:10606000FF00FFFFFFFFFF00000000000200000034
:1060700001000000020000001400FFFFFFFF02000B
:106080000D0A006E616E00696E66006F7666000034
:10609000000000000000000035460000353F000011
:1060A000774500003945000051450000ED460000ED
:1060B0001143000001430000394400002743000061
:1060C000FD42000000000000000000000000000091
:1060D0008D4A000071490000B9480000000000002E
:1060E00041726475696E6F204C4C430004030904CF
:1060F00012010002EF02014041234D800001010224
:10610000030141726475696E6F205A65726F0000F9
:10611000000000000000000005570000315700009B
:10612000015700002557000019570000695700006B
:106130004D57000000000000430000000000000078
:106140001100000040420F00FFFFFFFF00000000B1
:106150008300000002000000820000000000000038
:10616000000000000000000000000000000000002F
:106170000000000000C2010000000800FFFFFFFF58
:10618000080B0002020200000904000001020200E4
:106190000005240010010424020605240600010560
:1061A0002401010107058103100010090401000208
:1061B0000A000000070502024000000705830240B4
:1061C00000000000FFFFFFFF0000000000000000D3
:1061D00000000000000000000000000000000000BF
:1061E0000000000000000000386100000000000016
:1061F000000000000000000000000000000000009F
:10620000000000000000000000000000000000008E
:10621000000000000000000000000000000000007E
:10622000000000000000000088000020DD200000C9
:10623000BD27000035350000E95600002958000050
:10624000B520000000000000000000000000000079
:04000003000035E1E3
�      	                              
            e  �L#x +�K +�H � �##p�\         �K +�HI � �Hh +�K + ИG��F      `   X       JKx )	�Ix	xAɲp� I��ax1ɲpx�)�x	)	�Ix@B��px	xAɲpxx�Bр"K��apGx           D A��i���h$�C`�i#B��h#C`h����i#B���i�@B��KC`�iZ���#�C`���i���h"C`�  @~����pG  ~#Q��B�B�B��@B�B��B�K"p ���pG�Fy   p�h��!�2B&Ѐ ���r#Sp@!K�qPq^hM� .@�C^`^i5@(CXaH`Ha]hH(@�%�(CX`Xh��X` #Qq#q�z��  ��� yp��  �����     �? � #qCqK`�`x"CppG�F�  8�6K !�i 
C�a4K$xCp2K"x�Cpx!Cp/Ix Cpx
@px`!
Cp+K+JZ�ZxR� *��)K!x
Cp�x���&HhQ"@�B �!@��"I)@!C�h�
@* �"�!
@�C"C�h!�
@�B �"
@�J@
C�x"
@px!H
CpXb�!�C��!�C� !�"�v�8�  @XD A<D AYD A  @@   P A$`� ?��������  ��J_��Xi'@ @03�@��"Yh
CZ`	�/{�AK��8"�5��H5BaRi����
CZaYiJ
@Zak�"�qYy�"RB
CZqk��y��� ���    �? ���N3x +�KJdZl��ZdXlJ@Zd�#[ �\@ C�T#3pH'�7�]#@�KZl���B�\l��"I���#�U #3p � ��z   �  �   �? ��0�y " ) �"C�qpG  K�0Zi��Za#r�y�#[BC�qz���pG�F�  �#[BCɲ�rpGp��#"[ �TKJ\l�!@�CF%\d�5@$DUM0&d�%m FU]k@)C�%Ycm �!AU	Mc�%m DU\o"@Zg�#[ �Tp��F�  �����   X  0�6J#Qh �C#CQ`3I�iC�a2H2J����C���h���/K px��,H@x@� (�� �`Xx@� (��(L&HD`Xx@� (�ۂ$#H�D�Xx@� (�ې��$�C���h���LH�b�hH��Մ�M,C���hH��Մ�%,C���h��H�hE���h��� "�`ZxR� *��H
JP`ZxR� *�� #rKr�r�r0��F @ A  @    @  @ ��}
    ���
���������JH8��B�JK�B�
�
L�B�� #��B���X3
`�� ���B�� !�����    \   �  \     3J8�h3�Ѳ )�0Kx#@/K
�h.I�B�`�`,I9 )��`#h����#�C(K�`"K[hG��)�b� ��� �Z�#K�"�#I�`"
`"I
`�"�`�aK J�!Z`J	j  
Cb "�`"`�h �GK (�"px *�   �� ����x +�� �� (��  �� �����F    8 @�  5�sH�  � � D A�D A�D A� ��  {   ����� �����KL#`��b� !h��P� � P A  p��� �;�@ jF#0Sppv#�:xZ  )�(iF #����@�p��B��hF�R3��  ���Jhx�I'�7 8rpSx�H�Np�x3��x3�	C3�y�K�Qy�	C��y�I��y�C
�@"zq�O:x�O8xC�H�FbE ��� ܀!I �B �n�	܁* ђ�* ѕ�* �d��#[ �B ��� �X��#� �B �W�K�B �O�R�#�Bi���#� �B"Ј#�BiР#� �B �@� ����1�(h������;�K�B �/� �1�K�B ��K�B �)�3�kq"�3�
+��"(h�B�
���~I�3�
+��C"(h�B�
���yI�3�
+ ��3�۲+� +�+ ���
�(hҲpI�"�oI �Y�;�"(h�B�:������
�(hiIҲ�����3� +q��~� ������)�"��aI #�(h"��^I "
��P"@\Jp� 0@��( ���x�3[��y *Л ����(h"���"�CNJɲp�!@�1� ) У�� ) џ��) ٛ�x�3[� *� "Zq��!Yq���#�C<KҲp�"
@�2� * Ѐ�� * �|��* �x�x +��3[��y�j�� "3[�q�3[��y_]��@"3[��q�"3[���3[��y�J��"3[�q�3[��y�=�� "3[��q�"3[�q0��F�   }   �   �   �   �       !   �!  !"  \     L  <  @  ~   |   �"(h�B�
���I #���� ����� !�������FH   �K"��h���� ��F  �KlF4h!"��7� x��F  �L ���  �B�"hH#�3�\#@�  �Jh#"���� �  p�L 
���� #�B� h1*���p�  ��L ���� #'4�B
� ,�)"8h����$-��3���F  ��GK�"ZaKd"���F D A�   (�KJ`Kp� (�JK`pG�  �  �   �  0�
I��	x )*�*� h�*� � � xR ��;��B�!@	)�0%)C �71p 	;���0#px#Kp
 ��p
 �pK2h�h�I	h�h�����0��F�   �  r����J`h���ChGpG�F�  
K� *	��:��� *р"	K�aK� *��:��� *�K"`pG�    D A�   �D A𵑰��J1�1�Q�Q�`�`��K�H�hz%RR� RX�I`�h��bC`�I $
`�J`�L%p�L�M#h(i@!�G (��K"`�Kd"��K "`�K`�K�M�O`*h;h�B�ҽKhx�* � �#* ���N3x +вK�Ih"�h����KxS+?�;h*h�BٯH2*`��Khh1`�N�B�2` �3`�H2h h� ���3h)hZ*`�Jh�`�Jp+h;+`�Kh:`�K�Jxh�B
�"h�H� h�i�G (ВK"`�Kd"��F��R+щH�J#h hh[i��G�K�"Zad"�K
�O+сK�Jhhp}�H+�}K�Jhh�u�W+�yK�Jhh`m�o+�uK!h�h+�rK|Hh!�`����\�w+�lKwHh!h`��G+�sKh����vKh���b�tKx + �C�cK hh�G=�T+�#3p^Khd�N+�3x +�ZKaIh"�h��f� #3p'�V+W�#hcI�h"��[�#haI�h"��U�`M#h)�h"��N�#h]I�h
"��H�#h)�h"��B�IOJMWI #9`+`:(h^`x� +�h3`��;N*h3h�h��)�3hII�h"��#��)`II9`8JhX`x +�5Kh2`��3h*h�h���3h�h1I"��1JX+�!N#M6hh*h� �B
�MX�a7H(�M(}���[��K3Ih�h��Y+ �}�hK0I *�h`p�Mhhkh
N�%�C�s` *e�(K	M+�N3}��� #M-h���BG�"MN5�J�p   @ A@  8  4  �  0  �  D  �D A�   (  ,  <  �   �  �  �  $   D A�   �  �   �  �  �  �  �  �  ����  �   D�������B�Н FY3NQ��@N5}��՝ I@���<K=Ih�h.�Z+/�;Khh &��B�(x1 ��5��2K4Ih"�h��V�#"2@6	01	* �1 �jF�T;��#h��h"��A�#h'I�h"��;�&Kz"p%K "`%Kx�B-�K#Ih"�h��*�%�09ȲK	(�h*C`�A9)�h7:1�a9)�hW:
C�,*�Jh`�I
p "`Kh2`
Kh2���F @ A�  �  �  �  �  0  �  �   �  <  ,  �K x$CpK"x�Cpx!CpIx Cpx
@px !
CpK!j
CbKJZ�ZxR� *���"HI���0�J #pJpJpJpJpJp�JD A5D AKD A  @  @@    B*�  �    �  �       ���H��/� ��F  BK~@�pG�F  B����� (��H�� ���F  B����� #�B�����#;ZBSA�p�
F�B� x����4��(p������ p �
X@K@ �Z	H@��pG�F  �� $&�B �����K��x� +�1����
K� *�Jx* )��j)p�/��9�4����0 � ��  �    �>N�� "�2p<K�B�"�:I�p#BЀ4�C��~�3x�� +� %5p��v�3x���B6�C(�q(S�(��# � ��U� ���R� ��%�C����L�� '�$J� +�!I�	x )����=�9���y�= -�� 
����1�����.���>�3x +
�5p��;	x���3�����(� ��3۲�1 ��<� ,�� ������K%p � %(��    �  �8L�� #�#p�B�#�4J�4Jd&pC ����2O���� (� /�?�� /�> .��M�%����#x +8����(�(=� ����9��!0�����!���#x� +�����������#x?��+
���B�3x�B��Crx۲�B� ���� #� �����"x *� &&p�+��k�2ݲ���J #p&0��  �     5 � #�B��\�T3�����B�p3��pG #�\3 *��XpG���F����FpG���F����FpG	Arduino LLC Arduino Zero       @A#M               @   �            �  !    U  o  �    v   Dec 20 2016 15:36:39 X

 Y

 Z #

 > 2.0    =  Y  u  �  �  �  �  [Arduino:XYZ]   !B c0�@�P�`�p�)�J�k���������1s2R"�R�B�r�b9��{�Z��Ӝ�����b$C4 �d�t�D�Tj�K�(�	������ō�S6r&0�v�f�V�F[�z��8�����׼��H�X�h�x@a(#8���َ��H�i�
�+��Z�J�z�jqP
3:*���˿���y�X�;���l�|�L�\",<`A�������*��h�I��~�n�^�N>2.Qp���������:�Y�x�����ʱ��-�N�o�� �0� P%@Fpg`������ڳ=���^���"�25BRwbVr�˥����n�O�,�
��4�$��ftGd$TDۧ������_�~��<��&�6��WfvvF4VL�m��/�ș鉊���DXeHx'h���8�(}�\�?����؛����uJTZ7jz�
��*�:.��l�Mͪ����ɍ&|ld\EL�<�,���>�]�|ߛ���ُ��n6~UNt^�.�>��        	C  �2	    $ $ $ $ � �	 
   �@  @    �    i   A       