:10200000008000208D34000075340000753400001D
:1020100000000000000000000000000000000000C0
:102020000000000000000000000000007534000007
:10203000000000000000000075340000E1340000E2
:1020400075340000753400007534000075340000EC
:1020500075340000753400007534000079340000D8
:1020600075340000C1330000753400008921000080
:102070007534000075340000D13300007534000061
:1020800075340000753400007534000075340000AC
:102090000000000075340000753400007534000045
:1020A000753400007534000075340000753400008C
:1020B0000000000010B5064C2378002B07D1054B1B
:1020C000002B02D0044800E000BF0123237010BDA4
:1020D0001001002000000000AC63000008B5084BB0
:1020E000002B03D00748084900E000BF07480368F9
:1020F000002B03D0064B002B00D0984708BDC046EC
:1021000000000000AC630000140100200801002062
:102110000000000070B5174C45681749201C01F0FD
:1021200021FE291C1022201C01F081FE201C1349D5
:1021300001F018FE69061022C90F201C01F077FE7D
:102140000F4E201C311C01F00DFEA9061022490F74
:10215000201C01F06CFE6D07311C201C01F002FEFA
:10216000690F1022201C01F062FE201C054901F0BD
:102170000BFE70BD88020020A55A0000AD5A000079
:102180008D5C0000AF5A000008B5024802F0F8F874
:1021900008BDC0468802002038B5012200238A42CB
:1021A00004DC01245B0023431219F8E7CC17051C5B
:1021B0001D40A40F032364181940A4104B1E99411D
:1021C0006418013CA1002B1C0B41191C0F23194062
:1021D0000348102201F027FE002CF2D138BDC04682
:1021E0008802002010B5002809D0041C0134631EA9
:1021F0001978002903D0024801F0B8FDF6E710BDB8
:102200008802002070B588B0031C03AC0E1C00943B
:10221000191C39480022122300F0E6FEC5B2002D39
:1022200066D13648FFF7DEFF3548FFF7DBFF0821B0
:102230002078FFF7B1FF3348FFF7D4FF082160781B
:10224000FFF7AAFF3048FFF7CDFF10216088FFF7A6
:10225000A3FF2E48FFF7C6FF08212079FFF79CFF58
:102260002B48FFF7BFFF08216079FFF795FF29484A
:10227000FFF7B8FF0821A079FFF78EFF2648FFF788
:10228000B1FF0821E079FFF787FF2448FFF7AAFF95
:1022900010212089FFF780FF2148FFF7A3FF1021BD
:1022A0006089FFF779FF1F48FFF79CFF1021A08985
:1022B000FFF772FF1C48FFF795FF0821A07BFFF78F
:1022C0006BFF1A48FFF78EFF0821E07BFFF764FFE2
:1022D0001748FFF787FF0821207CFFF75DFF1548AF
:1022E000FFF780FF607C0821FFF756FF637C3370A7
:1022F000281C08B070BDC04630010020F25D00000F
:10230000365A0000085E0000315E0000BC5D00002F
:10231000BB5C00007D5D0000225A0000DB5C000019
:10232000425E0000765A00001C5E000075590000F5
:10233000A35C0000295D000070B5041C06785248BB
:10234000FFF750FF5148FFF74DFF617823780902EE
:102350001943A3784E4D1B041943E37810221B0642
:102360001943281C01F06DFD4A48FFF73BFF6179D6
:10237000237909021943A37910221B041943E37935
:10238000281C1B06194301F05CFD4348FFF72AFF98
:10239000617A237A09021943A37A10221B04194394
:1023A000E37A281C1B06194301F04BFD3B48FFF75D
:1023B00019FF217B02228907890F281C01F041FDAA
:1023C0003748FFF70FFF217B02224907C90F281C5E
:1023D00001F037FD3348FFF705FF217B0222C906D4
:1023E000890F281C01F02DFD2F48FFF7FBFE217BF4
:1023F00002224906890F281C01F023FD2B48FFF714
:10240000F1FE217B0222C909281C01F01AFD28488F
:10241000FFF7E8FEA17B637B09021943E37B1022EF
:102420001B041943281C01F00CFD2248FFF7DAFEBB
:10243000617C237C09021943A37C10221B041943ED
:10244000E37C281C1B06194301F0FBFC1A48FFF72C
:10245000C9FE617D237D09021943A37D281C1B044D
:102460001943E37D10221B06194301F0EAFC251CE9
:102470000135AB1D1B1BDBB2B34204D2A879082186
:10248000FFF78AFEF4E770BDCD5A0000E35A000062
:1024900088020020F25A0000045B0000115B00007B
:1024A000245B0000365B00004F5B00005E5B0000B9
:1024B000775B0000835B0000955B000010B5041C97
:1024C0001848FFF78FFE1848FFF78CFEE078A378D6
:1024D000000218431021FFF75FFE1448FFF782FE49
:1024E00020790821FFF758FE1148FFF77BFE60793D
:1024F0000821FFF751FE0F48FFF774FEA07908216D
:10250000FFF74AFE0C48FFF76DFEE0790821FFF760
:1025100043FE0A48FFF766FE207A0821FFF73CFEDB
:1025200010BDC0468B5900005C5D0000AE5D000030
:10253000665A0000C7590000CF5C00004F5D0000E4
:1025400010B5041C1A48FFF74DFE1A48FFF74AFE63
:10255000A0780821FFF720FE1748FFF743FEE07838
:102560000821FFF719FE1548FFF73CFE20790821E6
:10257000FFF712FE1248FFF735FE60790821FFF7DA
:102580000BFE1048FFF72EFEA0790821FFF704FE8E
:102590000D48FFF727FEE0790821FFF7FDFD0B4806
:1025A000FFF720FE207A0821FFF7F6FD10BDC04698
:1025B0004C5A0000D8590000E75D00006E5D000035
:1025C0009D5D0000155D00008F5C0000045D000053
:1025D00010B5041C1948FFF705FE1948FFF702FE65
:1025E000E078A378000218431021FFF7D5FD1548C5
:1025F000FFF7F8FD08212079FFF7CEFD1248FFF71D
:10260000F1FD60790821FFF7C7FD1048FFF7EAFDEB
:10261000A079222803D10E48FFF7E4FD02E008214B
:10262000FFF7BAFD0B48FFF7DDFD207AE3790002E2
:1026300018431021FFF7B0FD10BDC046A85B000095
:10264000BE5B0000D25B0000E45B0000FE5B0000AC
:10265000125C0000245C000010B5041C1E48FFF74B
:10266000C1FD1E48FFF7BEFDA3787F2B01D91C4892
:1026700000E01C48FFF7B6FDA0780F2318400821A2
:10268000FFF78AFD1848FFF7ADFDE27803231340FA
:10269000032B01D1154806E0022B01D1144802E0BA
:1026A000012B02D11348FFF79DFDE0780821FFF7C9
:1026B00073FD1148FFF796FD6079237900021843F6
:1026C0001021FFF769FD0D48FFF78CFDA079082167
:1026D000FFF762FD10BDC046EB5C00000D5A000024
:1026E0003B5C0000405C0000DB5D0000465C0000DD
:1026F000515C0000575C00003D5D00006059000027
:1027000070B5041C06781048FFF76CFD0F48FFF702
:1027100069FD08212078FFF73FFD0D48FFF762FDB6
:1027200060780821FFF738FD0A48FFF75BFD251C9C
:102730002B1BDBB2B34205D2A8780821FFF72CFD92
:102740000135F5E770BDC046B1590000915D00004C
:10275000A7590000CE5D0000F0B5C7B006AC061C5E
:102760000091002204230F1C01942748311C00F023
:102770004FFC6D46A37816352B70E37880226B7082
:102780002B885200934205D92048FFF72BFD802368
:102790005B002B802D881C482B1C00970194311C5A
:1027A0000022039500F034FC251C039AA3189D42D7
:1027B00026D26B782F78052B15D007D8022B0ED098
:1027C000042B18D1281CFFF7BBFE17E0212B0ED0DD
:1027D000292B10D1281C311CFFF7AEFD0EE0281C60
:1027E000FFF76CFE0AE0281CFFF736FF06E0281C06
:1027F000FFF7EEFE02E0281CFFF782FFED19D4E799
:10280000002047B0F0BDC04630010020E95900006B
:10281000F7B56D4607350023291C061C2B70FFF702
:10282000F1FC041E06D01248FFF7DCFC201C082136
:10283000FFF7B2FC0F4F1049381C01F093FA002447
:102840002B789C4212DAE1B2301CFFF785FF071E9D
:1028500006D00748FFF7C6FC381C0821FFF79CFC90
:102860000448054901F090FA0134E9E7F7BDC04694
:10287000875A000088020020BB5B000038B5094D74
:10288000041C0949281C01F07FFA60680821FFF741
:1028900083FC281C054901F077FA2079FFF7B8FF7F
:1028A00038BDC04688020020BB5B00005C5C0000B5
:1028B00070B5114D281C00F0E1FC281C00F0B2F8A6
:1028C000902818D12C1C8A2324345B00EE18251C78
:1028D0006B68002B02D0281CFFF7D0FF1035B542E3
:1028E000F6D16368002B02D0201CFFF713FC1034D4
:1028F000B442F6D1FEE770BD3001002007B50123D8
:10290000009300230193054903220423044801F0A6
:1029100057FC044800F056F807BDC046E804002004
:10292000880200203001002010B5124CE121201C4B
:10293000490201F0E5FB0320011C00F0E7FF032141
:10294000042000F0E3FF201C0B4901F01DFA0B48A6
:1029500000F05EF8013003D1201C094901F014FA9F
:10296000142000F0D1FD00F0C9FD064BC018064B45
:10297000186010BD88020020615C0000300100205A
:102980007C5C0000102700002C010020094B0A4A43
:102990000A491A6000225A711A71094B19601621EE
:1029A0001971182199711721597101215A72D97120
:1029B0001A7270474403002000093D00EC04002017
:1029C0004C030020104B0122C261082230B5036085
:1029D000041D002382603C22036183610362446121
:1029E00043600273C2180021012510339162D56241
:1029F00011635462F02BF5D1AA23AB40C154034BB1
:102A000011221A6030BDC046605E00000000002048
:102A100010B5AA2300245B00C45401F011F8201C57
:102A200010BD0000014B18687047C0460000002030
:102A3000F7B5171C00911E1C00F060FD234900250E
:102A400041180191381C009901F0E8F82C1C00F0A5
:102A500055FD0199814236D901F094F8022832D10E
:102A6000381C009901F006F900282AD118487B018A
:102A70001A18107A0421084205D011720134002E70
:102A800001D0B4421BD0134AD11808318978880785
:102A900004D50134002E01D0B44210D0D21808322F
:102AA000D2880820024202D00135032D0CD0094AF9
:102AB0000120D3180833DB880342C8D004E0022089
:102AC00002E0002000E0FF20FEBDC046102700000D
:102AD000FF500041F00A0020F0B50C1C87B01978B7
:102AE0001E1C059200236268337003922368227AC9
:102AF000049002915B01910704D5324A9B18012290
:102B00005A7103E02F4901225B181A7123680C994E
:102B10005A012D4B0025D15022682B4F5301DA5911
:102B20000498AA18DA510121059B2268FFF780FF5B
:102B30002368012814D125495B015B18DA79277ACB
:102B40000240111C01404900019102218F4301996B
:102B500039432172002A01D09871DDE75871DBE713
:102B6000002805D0174A5B019B1810225A7127E0F4
:102B700014495A015B015B18BF1840217A6819712A
:102B8000029D9204920C954200D9151C3378039A49
:102B9000EB18DBB23370954202D302998B42BBD360
:102BA00022680A4953015B18D979012211409140EA
:102BB000227A022082430A43227210229A71002054
:102BC00007B0F0BD00510041F00A0020FF50004165
:102BD000F0B54F6895B01D1C7B1E03900C1C029233
:102BE000DA203F2B56D80023AB4206D21A99CA5C92
:102BF00004A9CA540133DBB2F6E72368227A5B01E9
:102C0000D10704D5244A9B1801225A7103E02249B6
:102C100001225B181A710020002D2FD02E1EBE42FB
:102C200000D93E1C2068311C04AA00F0E3FF039881
:102C300002212268029BFFF7FBFE00281CD002281D
:102C400004D0082826D0012818D103E0029A012ACE
:102C500020D113E02168114A4B019B18DA79217ABF
:102C600002400092814302400A432272009A002AE5
:102C700001D0987100E05871AD1BCDE72168064A7C
:102C80004B019B18217A9A79012399431A400B1C16
:102C90001343237215B0F0BD00510041FF500041B5
:102CA000F7B5141C009001911D1C0026019A009B91
:102CB0009700DF19FC37B869211C03685A68089B24
:102CC00094462A1CE047C3B2E02B16D1002C09D150
:102CD000234B8022198992000A431A81662000F052
:102CE00013FC11E0231C009A44339B00D31858684E
:102CF000291C03685B69984706E0002B04D0F3B2F7
:102D0000022B0FD9C0B229E0B869211C03682A1C24
:102D10001F68089BB847C3B2071C002B12D0F3B240
:102D2000022B04D8642000F0EFFB0136BEE7002C34
:102D30000AD10B4B8022198992000A431A8166201E
:102D400000F0E2FBF8B209E0009B4434A4001C1937
:102D50006068291C03685B699847F3E7FEBDC046BD
:102D6000005000410123826A8A4201D1181C05E00B
:102D70000133DBB21030102BF5D100207047F8B5CD
:102D80001F1C0023151C041C0E1CCA099A4236D1B4
:102D9000072F34D89D4202D0016907292FD0201C6B
:102DA0000021FFF7DFFF0023984228D09E4212D176
:102DB00001309D4207D00301E31841229A60236944
:102DC0000133236103E00301E31801229A6000014B
:102DD0002418A36813E007221640F600002D07D040
:102DE00021694023013133430A402161134303E049
:102DF000331C174093433B4300012418A361181C64
:102E0000F8BD10B5041C143000290AD0201CFFF7AF
:102E1000A9FF0023984203D0013000012418231D8C
:102E2000181C10BD10B5141CFFF7EBFF00280FD0C5
:102E30000368002B09D082680021914205D01868F0
:102E4000A04204D00C330131F7E7002000E0181C49
:102E500010BD0000F8B5051C0C1C171C1E1CFFF74C
:102E6000D0FF002826D00368D720002B23D0281CB1
:102E7000211C3A1CFFF7D6FF3060002818D0037AD7
:102E80009B080F2B03DC01229A40131C01E08023D6
:102E90001B02069A013B1360036807495B01CB18CC
:102EA00099897F22144091430C439C81002002E0C9
:102EB000DB2000E0D620F8BDF00A0020F0B58FB08E
:102EC000029314AB1B78051C039315AB1B78171CDE
:102ED000049316AB1B781B9E059317AB1B880693B8
:102EE00018AB1B88079300230893099309AB009341
:102EF00008ABFFF7AFFF041E70D1402100F048FE81
:102F0000041E6BD1039B0CAA53700299059B117090
:102F1000D3700499079B9170D3800699089B918088
:102F20001868082100F066FE211C281C3A1C099B29
:102F3000FFF77EFD041E51D102991A9ACF09002A8B
:102F400037D00899099A0B7A002F27D002242343FF
:102F50000B72199B281C0A931A9B00930AABFFF76C
:102F6000BBFD012210420CD0089B1D6869011D4D5C
:102F7000491989790A4051001A7AA2430A431A7200
:102F80002BE0002829D1002E13D033680A991C6841
:102F90001A9A0B900BAB301CA0470AE001200343A8
:102FA0000B721A9B281C0093199BFFF711FE041E3D
:102FB00014D1089B186800F013FE089B281C1968A0
:102FC0004A0108495218012151717A427A4102217D
:102FD000891A1A68099BFFF72BFD041C201C0FB0EF
:102FE000F0BDC0460051004130B5012589B00295C1
:102FF00005939DB206240C9B009400240693019433
:103000000394049507948023FFF758FF09B030BD5F
:1030100030B589B00C9D06240094ECB201949DB2A9
:10302000059302240D9B02940024069303940495B7
:1030300007948023FFF742FF09B030BD10B5DBB223
:1030400088B0019305240023009402930393049312
:10305000059306930793FFF731FF041C9620400069
:1030600000F052FA201C08B010BDF8B5041C0F1E69
:1030700028D04B1C1B01C3181D7A6E076D06760FF6
:10308000ED0F012D0FD16B1C1A01A218127A9206B6
:10309000520FB24211D01D1E0F2DF4D92369B34235
:1030A00001D1013E26613F01E719002201210434CC
:1030B000BA61F9613A627C6104E0201C291CFFF7C7
:1030C000D4FFE0E7F8BD10B5041C41290ED1011C66
:1030D000031CF03101200022D862201D9A621A637D
:1030E000586210338B42F5D1226105E0FFF73AFEBA
:1030F000011C201CFFF7B9FF10BD70B51E1C031C7E
:10310000041C151C143301D1D62026E04369002B82
:1031100022D0331C5A1E9341036200222B1CFFF75E
:103120002EFE051CD420002D17D0201C291CFFF7D3
:1031300068FE0028E8D00021C6600A1C201C2B1C59
:10314000FFF77CFF061C0020864206D0201C291CAD
:10315000FFF7B9FF301C00E0D72070BDF0B591B08B
:1031600002930823099308AE3C2333720368059247
:103170000022049108921B68111C071C9847051C2B
:10318000D620002D77D02B68029A0BAC0021EA6084
:1031900003932E600A1C12230094381CFFF724FFAF
:1031A000E279031C7260039A2A60002B63D12289A2
:1031B0001D1C0392628906928A2224795200BE184D
:1031C0000794341C2068002806D101350434102DE2
:1031D000F8D1341C002514E003681B6998470028C7
:1031E000F3D1206803990368069A9B6998470028E1
:1031F00029D1206807990368DB699847002822D104
:10320000E3E72068002813D003681B69984700286B
:103210000ED1206803990368069A9B699847002895
:1032200006D1206807990368DB699847002815D004
:1032300001350434102DE4D1381C0499059A029B01
:10324000FFF75BFF17E0029B381C0093291C049AD0
:10325000059BFFF725FDD128B7D00CE0029A059B0E
:103260000092381C049A291CFFF71AFD0823021C3F
:103270009A43D12ADCD011B0F0BD0000F7B500238D
:103280000193061C00F07EFC0190019B022B10D0E4
:10329000032B02D0012B19D102E01322444B06E08C
:1032A000434BF02219680A40102A0FD011221A60ED
:1032B0000CE03F4CF02322681340102B06D100F0A5
:1032C0001DF93C4BC830186020232360002573197A
:1032D0001533FF331868002802D00368DB6898476D
:1032E0000435402DF3D1324C2368271C302B26D0D7
:1032F00004D8112B09D0202B19D057E0502B39D0EE
:10330000802B43D0402B51D121E000F099FB0024C9
:1033100033191533FF331868002802D003689B68FF
:1033200098470434402CF3D112233B603EE000F078
:10333000E5F8204B1B68C01A38D4302335E01E4B0B
:103340008022198992000A431A8125602EE01A4BC7
:103350000822998B114229D09A8319898022520020
:103360000A431A815023236000F0C8F8114B14302F
:1033700018601BE0104B9B8B590717D50D4B1D6830
:1033800000F0BCF8802385420FD30FE00021301CF1
:103390000A1C0B1CFFF7E2FE002805D0D22805D03E
:1033A000064B1860A02300E090232360F7BDC046C1
:1033B0000000002060030020005000415C0300205A
:1033C00008B5024800F0DCFF08BDC046200400201C
:1033D00008B5024800F0D4FF08BDC04664030020D1
:1033E000F7B5164F1649381C00F07EFD15491648F2
:1033F00000F07AFD1549164800F076FD154916488B
:1034000000F072FD1549164800F06EFD154D0326BB
:103410000124281C144900F067FD391C0096231C68
:1034200001940022114800F0CBFE0096291C019463
:103430001F221E230E4800F0C3FEF7BDE00400204B
:1034400000080042000C0042E4040020001000428A
:10345000E804002000140042DC04002000180042B0
:10346000EC040020F0040020001C00422004002096
:1034700064030020FEE7000008B5034B1B68002B27
:1034800000D0984708BDC046F404002038B50F4965
:103490000F4CA14204D100F055F800F01BFC0BE0EA
:1034A0000C4D8D42F7D00023CA18E818A24204D26E
:1034B000006804331060F7E7FEE79042EBD0064B5C
:1034C000064A9342E7D2002204C3F9E70000002035
:1034D00010010020B063000010010020F40B002058
:1034E00008B500F02CF8002801D100F01DF808BD47
:1034F000014B18607047C046F4040020014B186867
:103500007047C046F804002070B5041E08D0054B73
:103510001D681E1C00F012F833685B1BA342F9D330
:1035200070BDC046F804002008B5034B1A6801328C
:103530001A6000F09FFC08BDF804002070470020CE
:103540007047000070B5494A1E21536802208B4322
:103550000343474953608B69082423438B61454CDF
:10356000454B9C829C8A20439882101CDA68940701
:10357000FCD5424A012414701478E50704D53F4C69
:10358000647864B2002CF7DB01249460547864B250
:10359000002CFBDB3A4D394C6560547864B2002C4A
:1035A000FBDB8225354CED016580547864B2002C3C
:1035B000FBDB02249C84DC68E606FCD5314D2E4CF6
:1035C000E562DD682C4CEE06FBD5A58C2E4E35430E
:1035D000A584DD68284CEE06FBD5A58C0226354374
:1035E000A584DC682506FCD5234CE4686606F8D57E
:1035F000DC68E506FCD500249460547864B2002CA5
:10360000FBDB224D1D4C656055781C4C6DB2002DC6
:10361000FADB1E6A1E4D35401D621D6A8026B543C9
:103620001D620323A3601B4B636053785BB2002BC6
:10363000FBDB00230B72184A4B728B72CB72174B59
:10364000FF211A60164B174A1B6812685C01D20EE4
:10365000214011439A06520F12020B1C1343124AC7
:103660001385436880221343436070BD00400041CE
:10367000000400400C06000000080040000C004060
:1036800001050100B905FF7D040A000000070300E1
:10369000FFFCFFFF03060100006CDC0204000020B9
:1036A000246080002060800000400042314BFA21FD
:1036B000186810B5890002F02DF82F4B0138984298
:1036C00024D82E4A2E4B5060186AC0210002000AEE
:1036D0000906014319620024072194601160196AE8
:1036E00080220902090A12060A431A62254BFC21AC
:1036F0001A6A0A431A62196AFC2292010A431A6280
:10370000196AA022D2020A431A6200E0FEE7201CD6
:103710000021013400F070F8142CF8D11A4C6378B1
:103720005BB2002BFADB194B6380194B5A7ED2092E
:10373000012AFAD0E422D2009A803F22DA70597E20
:10374000134AC9090129FAD0C0235B010020136183
:10375000907000F023F863785BB2002BFBDB0D4A1E
:10376000094B5A800C4BDA79D209012AFAD041224E
:103770005A7010BD04000020FFFFFF0010E000E0C1
:1037800000ED00E000040040000C00401E4000007E
:1037900000400042214000000048004200B5144AA9
:1037A000517E131CC9090129F9D00138042813D806
:1037B0001969104A0A401A615A780F218A4301F0A8
:1037C0009FFF030509070300012102E0032100E038
:1037D00002210A435A700AE01169F0231B050B43CA
:1037E000136153780F218B4302210B43537000BDAB
:1037F00000400042FFFFFFF010B51824021C201CFF
:103800005043274B1818007A40B2013046D00329A4
:1038100044D8081C211C01F073FF023311216243BC
:1038200098569A18C3011F4852681B1899184031BE
:10383000022008700121914059602FE062439856A0
:1038400018499A185268C3015B189918403106202C
:10385000087001219140596099611FE051435A5607
:10386000104859184B68D2011118C8184030062466
:1038700004700120984048600B49521850600DE0D8
:10388000624398569A18C301064852681B18991843
:1038900040310220087001219140996010BDC0465E
:1038A000705E00000044004110440041182358435A
:1038B000134AF0B5131808241C5701341FD0825640
:1038C000104ED2015D6801249019231C8668AB401C
:1038D0001E420BD10E1C771EBE41401934404030B1
:1038E000A50004780426B4432C430470002903D1B6
:1038F00005495218536002E0024E92199361F0BDDF
:10390000705E000000440041104400411822424310
:10391000F8B52D4D0824AA181457031C621C50D06A
:10392000481C00240C284CD801F0EAFE071E1E1E7D
:103930001E1E1E1E1E0A0A0A0A000124644240E0DE
:10394000092902D1181C002103E00A2904D1181CFE
:103950000221FFF751FF23E000240B2931D1181C6D
:103960000121FFF749FF2CE018225343EA1852685F
:10397000EB560120141C04405508DB01002C11D02B
:10398000124C1B195D1930352E780C010F21314076
:1039900021439A18C9B22970403213781843107025
:1039A00000240EE0094E0F279B195D1930352E7843
:1039B0009A18BE433143C9B2297040321378184374
:1039C0001070201CF8BDC046705E0000004400412D
:1039D000194B1A78D2092DD09A8B042192B20A423F
:1039E0000BD108210A420DD140210A420AD12021DF
:1039F0000A4207D110210A4201D099830EE08021AA
:103A00000A4201D0998311E0802180204900800082
:103A10000A4205D09983998298831883022206E08E
:103A2000024208D098839882998319830122034B1C
:103A30001A7000E0FEE7704700500041FC040020CF
:103A400038B54548FFF754FD444B2021DA691C2066
:103A50000A43DA610621FFF759FF1D200621FFF70F
:103A600055FF3F4B3F4A5A805A7852B2002AFBDB3F
:103A70003D4C0122237813432370A2783A4BD007A0
:103A8000FBD4197882220A431A70197880220A43DB
:103A90001A70A378022BFCD034490B685A0B1F23F1
:103AA0001A409A4200D105221A409001258D304AD1
:103AB0002A40024322850868820C13401F2B00D144
:103AC0001D23208D1F2213409043034323850B6841
:103AD0000722DB0D1340934200D103231340218DB5
:103AE0001A03244B0B4013432385237804221343EA
:103AF000214A2370626223890C218B432381101C8D
:103B00000023C11800220A602033802189018B42E2
:103B1000F7D11A4B1B2001211A70FFF76DFE1B20F5
:103B20000121FFF7C3FE80235B002383238310233F
:103B3000238380239B00238322898023DB0013437C
:103B40002381C1220E4B920099580902090A99500B
:103B500080221A6038BDC046D13900000004004000
:103B6000000C00400640000000500041246080002E
:103B70003FF8FFFFFF8FFFFFF00A0020FC0400204A
:103B800000E100E0014B18787047C046FC040020BB
:103B90000E4B3820197B042319400D4B4A425141EA
:103BA0005A7849428243082002435A70094B0A4A14
:103BB000988902409A81C022920558681140074AAC
:103BC00002400A4300205A607047C046005000413E
:103BD000FF500041F00A0020FFF0FFFFFFFFFF8FC2
:103BE000034B4001181843689B0B9B0343607047CD
:103BF000F00A0020074B4001C250890418188B0CB2
:103C00004168890B8903194341604268024B1340A4
:103C100043607047F00A0020FF3F00F0F0B5021C3F
:103C2000124C083253011F5D03250E1CAF432E407A
:103C30003D1C35431D55002904D10D494001401854
:103C400010230AE0012904D108495B1840211971A9
:103C500006E0074B4001C018012303724023837123
:103C600002495201521810231371F0BD0050004157
:103C7000FF50004110B5012910D0002902D00229BF
:103C800016D021E0114A400183181C7A1022081C2A
:103C900014421AD01A729A71012016E00B4A4001A0
:103CA00083181A7A00200A420FD019721022F2E704
:103CB000064B4001C218117A01230020194204D09A
:103CC000102113729171E7E7002010BDFF500041F1
:103CD0007047000010B5FFF7E9FC01F06BFDFFF73E
:103CE000F7FF0120FFF710FC084C201C00F068FED5
:103CF000201C00F0DDFEFEF717FEFEF7D9FD044B99
:103D0000002BFAD000E000BFF7E7C046AB09002067
:103D100000000000F7B58A18061C0D1C01920C1C4F
:103D2000019B671B9C4207D0336821781B68301CBD
:103D3000984701340028F3D1381CFEBD08B503684C
:103D4000C9B21B68984708BD38B5051C0C1C081E75
:103D500007D001F0D7FD2B68021C5B68281C211CD2
:103D6000984738BD08B5FFF7EFFF08BD08B50368F1
:103D70001B68984708BD000008B50249FFF7E4FF3B
:103D800008BDC046BB5B000038B5041CFFF7DCFF74
:103D9000051C201CFFF7F0FF281838BDF0B58DB0CA
:103DA000161C0BAB002201900C1C1A70012E00D8BF
:103DB0000A266D462B35201C311C01F0EFFC201C1F
:103DC000CFB2311C01F0A6FC291C041C092F01D81C
:103DD000303700E03737FFB22F70013D002CEAD1B9
:103DE0000198FFF7B1FF0DB0F0BDF8B5041C0D1C34
:103DF000161E04D10368C9B21B68984712E00A2A4C
:103E00000DD100290ADA2D21FFF7B0FF6942071C06
:103E1000321C201CFFF7C2FFC01903E000E0D2B241
:103E2000FFF7BCFFF8BD08B5FFF7DFFF08BD08B519
:103E3000002A02D1FFF782FF02E0D2B2FFF7AEFF05
:103E400008BD38B5041CFFF7F2FF051C201CFFF766
:103E500093FF401938BD0000014B18607047C04601
:103E600008000020024B012252421A607047C046EF
:103E700008000020154A1368581C25D0013B136028
:103E8000002B21D172B6124A124B04329A4207D843
:103E9000BFF34F8F104A114BDA60BFF34F8F11E021
:103EA0000F4B197DC807FBD5188B2021FF319208D5
:103EB000520001431983DA610A4A1A801A7DD10738
:103EC000FCD5E5E7C046FDE77047C0460800002086
:103ED00000200000030200000400FA0500ED00E0ED
:103EE0000040004102A5FFFF01607047F7B508AC34
:103EF000267804689D1E27686C1EA541ECB29207C7
:103F000005683A4327063A432A6002680725294094
:103F10005068B501002C00D05C03294301430C43D9
:103F20005460F7BD30B50368C0251C68AD031205A9
:103F30002A402243C024A4020904214011431960ED
:103F400003685A6814435C6030BD036801211A6835
:103F50000A431A600268116801231942FBD1D16932
:103F60001942F8D17047036802211A680A431A609F
:103F70000268D3699907FCD4704703681A7ED10799
:103F800002D41A7E9107FCD57047036800225A8339
:103F900070470368187E4007C00F70470368187E9B
:103FA000C009704703688022197E52420A431A767C
:103FB00070470368187E0123184070470368188D06
:103FC000C0B2704703681A7E01200242FBD01985F7
:103FD0007047036801229A757047036801221A75B9
:103FE000704700000368224A30B5934211D0214A3D
:103FF000934211D0204A934211D0204A934211D0CB
:104000001F4A934211D01F4A934230D10E231922E6
:104010000DE0092314220AE00A23152207E00B23EE
:10402000162204E00C23172201E00D231822DCB233
:10403000154901209B08A0409B0008605B180320E5
:10404000C021890004405D58E000FF248440A5435E
:104050002C1CC0258540281C204358508023DB01A0
:104060001A430A4B5A805A7852B2002AFBDB30BD01
:1040700000080042000C0042001000420014004200
:1040800000180042001C004200E100E0000C00406B
:10409000F8B5041C151C0E1C1F1CFFF7A3FF201CE9
:1040A000FFF753FFB1001C220A4069072368090C7F
:1040B0000A431A60226884239375012E1AD10821BD
:1040C000012D00D110210C4B79431868C00001F07C
:1040D00021FB236807219A890140D2044903D20CAD
:1040E0000A439A8123680004C20C9889400B40035C
:1040F00010439881F8BDC04604000020012070479D
:1041000008B50368014A1B6A984708BD13040000FC
:10411000826D436D9A4203D0836DC018007D01E02B
:1041200001204042704710B5041C0069FFF70DFFE5
:104130000023221C63659C32A365A03413602360B6
:1041400010BD0000F0B587B001930CAB1B780025C3
:1041500002930DAB1B78402603930EAB1B78041C17
:1041600004930FAB1B780F1C0593FA239B0083600D
:10417000124B0092083303604560291C321C143036
:1041800001F051FB201C6565321CA565291C5C30C3
:1041900001F049FB009A231C9C331D605D60276180
:1041A0001A72019A201C5A72029A9A72039ADA724F
:1041B000049A1A73059A1A7707B0F0BDA06200003E
:1041C00030B585B0041C08A8057809A800780095CA
:1041D0000190FF2002900390201CFFF7B3FF201CEA
:1041E00005B030BDF023081C184030384342584118
:1041F0007047F0231B01194080239B0099420CD08B
:10420000C0239B00994206D080235B000520994281
:1042100004D0002002E0072000E0062070470F23B2
:104220001940012905D002394B424B410220C01AE6
:1042300000E0002070470000F0B5031C85B003913A
:10424000A433041C182718783B1C4343344E082120
:10425000F3185956151CFFF759FB231CA533187882
:104260003B1C43430821F3185956FFF74FFB231C0F
:10427000A7331B78022B0AD1231CB8331878FF28E8
:1042800005D047430821F7197956FFF73FFB271C54
:10429000A8373878FF281AD00121FFF7ADFA3B780C
:1042A00018225A43B3561F4FDB01211CAC31D819D9
:1042B00008601D49B6185B18211C7268B0310B608C
:1042C000012191400A1C211CB4310A601A600121AD
:1042D0000A1C039B2069FFF7DBFE291C201CFFF74B
:1042E00088FF291C071C201CFFF799FF291C061CAE
:1042F000201CFFF777FF391C0090331C2069012236
:10430000FFF7F4FD231CA7331978013B1A782069C5
:10431000FFF708FE2069FFF726FE05B0F0BDC04696
:10432000705E00001844004114440041026C436C6C
:10433000D01A00D54030704710B5041C201C5C30EA
:10434000FFF7F4FF0028F9D12069FFF716FE10BD32
:1043500008B51430FFF7EAFF08BD026C436C9A42BF
:1043600004DB036C406CC01A3F3003E0426C036C0A
:10437000D01A0138704708B55C30FFF7EEFF08BD72
:1043800038B5041C0069FFF704FE00281FD020691F
:10439000FFF714FE636D3F2201331340A26D934279
:1043A00003D0626DA21810756365231CA8331B78B7
:1043B000FF2B0CD0201C1430FFF7CFFF092806DCA0
:1043C000231C221CAC33B4321B6812681A602069AB
:1043D000FFF7EFFD002820D0251C5C35281CFFF7D7
:1043E000A5FF031C2069002B15D0231C221CA03321
:1043F0009C3219681268914207D01A68A95C1A6841
:104400003F2501322A401A6001E001214942C9B228
:10441000FFF7D8FD01E0FFF7E0FD2069FFF7BEFDE3
:10442000002805D02069FFF7BDFD2069FFF7ADFD2D
:1044300038BD000070B5041C00690D1CFFF7B9FD04
:1044400000280FD0201C5C30FFF770FF002840D000
:1044500008E0EFF31083DA0723D4214B5A68D20522
:10446000D20D0BD1231C9C33211C1E68A0310A687D
:1044700001363F2006409642EBD01BE0103AD2B204
:1044800053B2002B08DA0F231A40083A154B920852
:104490009200D218536804E09B08C033124A9B0074
:1044A0009B582069FFF785FD0028DBD0201CFFF713
:1044B00067FFD7E71A680968013202408A4204D0D0
:1044C0001968201C5C3045541A602069FFF781FD93
:1044D00003E02069291CFFF775FD012070BDC0466F
:1044E00000ED00E018ED00E000E100E038B5826D7D
:1044F000436D041C9A4208D0836D3F22C3181D7D72
:10450000836D01331340836501E001256D42231C57
:10451000A8331B78FF2B0BD0201C1430FFF71DFF96
:104520000A2805DD231CB033B4341B6822681A60E6
:10453000281C38BD10B507230F220240141C0009A7
:104540003034092A00DD0734CC54013BF4D210BDCD
:1045500070B582291ED1C2B22A495301CB189D6978
:10456000294C80012C40C025AD052C439C61274C73
:104570000832201858610B68520199180C79802074
:10458000404220430871D15C7020814330200143B8
:10459000D15435E0002933D1C2B21A495301CB18A6
:1045A0009E68194DC0242E40A40526439E60184ED7
:1045B000800109683018083258605201505C0726A3
:1045C000B0430126304350549E6935402C439C61D2
:1045D0000E4C5C61505C7024A04310242043505466
:1045E0009C680C488A18204080246403204398600B
:1045F00098684021800B8003986053790B43537176
:1046000070BDC046B4090020FFFFFF8F08060020E0
:10461000CC070020FF3F00F038B5041C08CC012176
:104620001A78051C0A431A708022201C00215200AF
:1046300001F0F9F82B689A78D107FCD45C6238BD98
:10464000134BF0B51B6899035A029B01C90ED20E99
:104650005B0F1F2900D105211F2A00D11D22072B26
:1046600000D1032304688E01278D0A491F25394094
:104670003143218501682A400C8DAC4322430A85D1
:1046800002681903108D044B03400B431385F0BDE2
:10469000246080003FF8FFFFFF8FFFFFEFF31083E0
:1046A00003600123436072B670470368002B02D198
:1046B00062B6BFF36F8F704737B50569041C684653
:1046C000002D12D1FFF7EAFF019B013B03D3621DCE
:1046D000D57FEDB2F9E768460193FFF7E6FF0020CA
:1046E000854217D0206AE36913E0FFF7D7FF019BEB
:1046F0000025013B04D3221C34321578EDB2F8E7D3
:1047000068460193FFF7D1FF0020854202D0206B5D
:10471000E36AC01A3EBD0000436810B51A68037A08
:1047200001215B01D318FF339A7A0A439A72037A04
:1047300042685B01D318C2689C6891040B4A09095E
:1047400022400A439A60037A42685B01D3189A6850
:104750004021920B92039A6043681A68037A0833E7
:104760005B01D3181A790A431A7110BDFF3F00F09C
:10477000F7B50569041C0E1C171C6846002D1FD1D7
:10478000FFF78CFF019B013B5A1C06D0621DD17FB5
:104790005A1E00293AD0131CF6E768460193FFF72A
:1047A00084FF0025E369BD4235D0226A934232D2AC
:1047B0005A1CE261A269D3181B7873550135F1E7E1
:1047C000FFF76CFF019B013B5A1C08D0221C3432BE
:1047D00015785A1EEDB2002D18D0131CF4E7684668
:1047E0000193FFF762FF0025E36ABD4226D0226BEA
:1047F000934241D322E0621D0021D17730321678F6
:10480000581E8E4214D1031C5A1CF4D168460193E1
:10481000FFF74BFF38E0226A934235D10023E36172
:10482000012323616846FFF739FF019B013BEBE75A
:104830001170201C0193FFF76FFFF6E7226B934284
:1048400022D10023E36223616846FFF727FF019B23
:10485000013B5A1CDAD0221C343200211170013283
:104860001678581E8E4201D1031CF2E71170201CED
:104870000193FFF751FFEAE75A1CE262A26AD318DC
:104880001B7873550135AFE7281CFEBD37B543686B
:10489000027A1B68083252019A18041CD07901234D
:1048A000FF21184255D0D371A06865696268014044
:1048B000002D1FD14901521891688904890C216289
:1048C000216A002942D06361A36A68465360FFF7FA
:1048D000E5FE019B013B5D1C34D0621D0120D077B9
:1048E0002F3211785D1EC9B21218002915D111702E
:1048F0002B1CF0E74B01D3189A689204920C2263A8
:10490000226B002A22D000226261A26968465A60A6
:10491000FFF7C4FE019B013B12E001931070684653
:10492000FFF7C3FE15E0221C343201201070621D17
:10493000D17F5D1EC9B230320029EED111702B1C1F
:104940005D1CF0D168460193FFF7AFFE201CFFF716
:10495000E3FE37BD37B500236C46E3710734201CF6
:104960000D1C00F013FE2B681818286000F0B6FE2E
:10497000211C00F06DFE2B681818286020783EBDC1
:1049800003290BD10D4BB2221B685200985C802189
:10499000494201439954022168220CE001290CD1BB
:1049A000064B92221B685200985C802149420143C9
:1049B000995402212822FF3299547047B4090020EB
:1049C00038B5304B00240121051C1A201C70FEF75D
:1049D00013FF1A200121FEF769FF2B4B192001213B
:1049E0001C70FEF709FF19200121FEF75FFF274B1E
:1049F0002021DA6901200A43DA61254B06241A785E
:104A000002431A70234B0F221978914319701978B9
:104A10002143197020490C782043087019780A4006
:104A20001A701A7860210A431A701C4B1C4A5A806B
:104A30005A78D209FCD11B48FEF75AFD1A4C201CAB
:104A4000FFF7EAFD201CFFF7FBFD23687F221978A2
:104A50000A401A701A7804210A431A701A890C2124
:104A60008A431A81C121114A890050580002000A64
:104A70005050802111601A7802210A431A700123D4
:104A80002B7038BDC8070020B0090020000400408A
:104A9000584400413C44004159440041000C00404E
:104AA00006400000D9540000B409002000E100E0F5
:104AB0000078002810D0094B01211B681A898A430D
:104AC0001A811A8B08210A431A831A8B04210A437C
:104AD0001A83034B00221A607047C046B4090020B5
:104AE000B80A00200F4B9A69920B92039A611B68D7
:104AF0000222FF331A7298798022524202439A713D
:104B00001A7A9007FCD5084B081C997A7F2210402E
:104B1000914301439972997A802252420A439A72D0
:104B20007047C046B40900200050004110B50B7911
:104B30000C1C002B0BD1081C00F036FD002804D102
:104B4000094B9A69920B92039A6101200BE000F0E5
:104B5000C5FD211C00F0B0FD0028F6D1024B9A697A
:104B6000920B92039A6110BDB4090020F7B50E1C98
:104B7000832A18D1CAB235495301CB189C693448ED
:104B8000B6012040C024A405204398613148083272
:104B900086195E610B685201D15C70208143402010
:104BA0000143D15450E0022A4AD12B4A89008D5842
:104BB0000191002D48D1382000F09EFC274B802722
:104BC0000360224B7F004360431D056286600561E0
:104BD0004561C561C760DD772F33041CC56205637D
:104BE0001D70381C5D7000F00BFEA061381C00F0D9
:104BF00007FEFF2315491E407601A0628E19B16899
:104C0000134A07250A40C02189050A43B260A168FA
:104C100062681940126808314901885CA84303257D
:104C200028438854A268616813405B01A269CB18CD
:104C30005A60201CFFF770FD019B07495C5003E0A0
:104C4000081C111CFFF784FCF7BDC046B409002006
:104C5000FFFFFF8F080600208C090020E0620000A3
:104C600038B5051C0124064BA200D258002A06D0F4
:104C7000211C281C0134FFF779FFE4B2F3E738BDAB
:104C80000C00002008B5084B8A00D058002803D03B
:104C900003689B68984706E0C9B2044B490159185C
:104CA00088688004800C08BD8C090020B4090020AD
:104CB00010B50C1CFFF7E6FF00280CD0064BE1B244
:104CC0001B680831490159184A7980235B42134314
:104CD0004B710223CB7110BDB409002070B5CAB26C
:104CE000134B1448540189015918031959609D68E0
:104CF0001149083229408025AD02294399609968FD
:104D00004026890B890399600368510159180D7970
:104D100035430D715101591889794D06FAD5510164
:104D20005918C979CD07FAD50419A068C0B270BD69
:104D3000CC070020B4090020FF3F00F038B50C4B31
:104D4000141C1B680D1CFF335A7940210A435A7109
:104D50000021FFF7C3FFA04200D9201C0023A3427B
:104D600004D0044A9A5CEA540133F8E738BDC046DF
:104D7000B4090020CC07002010B5C9B20C48490185
:104D800043189A689204920C3F2A08D9141C9A6816
:104D9000403CA404920BA40C9203224302E09A68C4
:104DA000920B92039A6041188868C0B210BDC04649
:104DB000B4090020F0B51C1C2F4B85B01B68061CE5
:104DC0000D1C0292002B51D02C4F3978C9B200290A
:104DD00002D11920FEF76AFD64233B70284BAA001C
:104DE000D058002805D0036802995B68221C9847B8
:104DF00040E0301C291CFFF745FFA04204D2301CC4
:104E0000291CFFF73FFF041C291C301CFFF7B4FFCF
:104E10001C4FE9B24A010191396803928B18FF33A4
:104E20005A7A01210A4318495A72AB01C9180298EB
:104E3000221C00F0EFFC002C1BD0301C291CFFF7BB
:104E400021FF002815D1019B3A6808335B01D31874
:104E500019794020014319710121D971039953181F
:104E6000FF339A7A01210A439A7202E001204042FC
:104E700000E0201C05B0F0BDB80A0020B0090020F9
:104E80008C090020B4090020CC07002013B56C4623
:104E90000734221C0123FFF78DFF012801D1207860
:104EA00001E00120404216BDF0B51C1C3F4B85B00F
:104EB0001B680E1C0292002B6AD08023DB019C42EF
:104EC00066D83B4D2978C9B2002902D11A20FEF7D5
:104ED000EDFC642300222B700092002C56D0354D3F
:104EE000F7B22B6801933B1C0833019A5B01D3187E
:104EF0009B79DB091AD0304B3049186800F00AFC66
:104F00002F4B1721584300F005FC3B1C0833019A36
:104F10005B01D318DB799A0708D42A4B9A5D002AE3
:104F200038D1421E002835D0101CEEE7254B002258
:104F30009A55251E3F2D00D93F25234AB301D3188A
:104F4000181C02992A1C039300F064FC194A7B0187
:104F5000D318039AA9045A619A69890C920B920397
:104F60000A439A613B1C019A08335B01D318022261
:104F7000DA715979802252420A435A71009B029A8F
:104F80005B1952190093641B0292A6E700980BE08C
:104F9000012008E001229A557B01ED18AB69101C35
:104FA0009B0B9B03AB61404205B0F0BDB80A0020EB
:104FB000C8070020B40900200400002040420F0070
:104FC00070110100000600200806002070B50E4D8B
:104FD0001C1C8B01ED18281C0E1C111C221C00F03F
:104FE00019FCF6B20949760189194D618A69084BA5
:104FF000201C13408B618B69A2049B0B920C9B03BA
:1050000013438B6170BDC04608060020B409002020
:10501000FF3F00F0F7B5114B01901B780F1C141CDB
:10502000002B19D10E4B1E78002E01D1151C08E063
:105030000C4D0D482E888019361900F0EBFB2E80A0
:105040000AE0002D08D0BA192B1C01980021FFF7A7
:10505000BDFF36182D1AF4E7201CFEBDAA0900205A
:10506000A8090020FE050020FE040020F8B50E1C53
:1050700000AF151E012D28D9D31DDB08DB006A46C1
:10508000D21A9546081C00F03DFC01306C464000E9
:105090000323207063700222AA420ED23378002BC1
:1050A0000BD0511CC9B20136A354A94204D000232D
:1050B00002326354D2B2EFE72A1C0548211CFFF7E5
:1050C000A9FF431E9841C0B200E00020BD46F8BDD4
:1050D000AB09002008B5044B00221A70034B0449A9
:1050E0001A88FFF797FF08BDA8090020FE050020D9
:1050F000FE040020F0B5204A87B00123002600916D
:1051000002A91370051C0296FFF724FC03AC0927C3
:1051100001903A1C201C311C00F085FB02236370B7
:10512000A023E371FA232372029B0122DB1963801F
:10513000019B62712371104A009B27701670BB425D
:1051400005D1281C211C1A1CFFF764FF11E00B4B32
:1051500001221A700A4B211C3A1C281C1E80029640
:10516000FFF758FF281C02A9FFF7F4FB281CFFF7E4
:10517000B1FF012007B0F0BDAA090020A809002056
:10518000FE05002070B5CE7892B0051C0C1C022ED6
:1051900008D1C9882D48FFF7ADFF031C581E834175
:1051A000D8B251E000F09AFA211C00F066FA00280B
:1051B00003D0C3171B1AD80F46E0012E04D1E28892
:1051C0002349112A3BD837E0032E3DD1A278002A8B
:1051D00005D12049E2880B7893422DD82FE0022A8E
:1051E00003D1A279281C1C4904E0012A05D1A27927
:1051F0001A49281CFFF73AFF26E0032A24D1184B4E
:1052000001A91868FFF796F9164B03A91868FFF76C
:1052100091F9154B05A91868FFF78CF9134B07A9ED
:105220001868FFF787F900F059FA09A900F035FA74
:10523000A279281C01A9DDE7D2B2002A00D10A78A0
:10524000281CFFF7E7FE012012B070BDAB0900205B
:1052500000630000FC62000012630000F0620000C6
:105260000CA0800040A0800044A0800048A08000E6
:1052700073B5051C48780C1C0B2878D800F040FA50
:10528000081C7728773E4306474B686F00206FE085
:10529000097801AA002903D111705170281C09E076
:1052A000002313705370334B1B78012B00D1137004
:1052B000281C002102234FE08A780023012A04D110
:1052C00001AA137053702C4BEEE72A4A137049E081
:1052D0008E78012E07D1284B01AA00211E70117073
:1052E000281C331C38E0002E08D1224A01231370F9
:1052F000224A9169890B8903916138E0A178281CC1
:10530000FFF7F0FB33E0281CFFF73CFF30E0281CE0
:1053100000211B4A1FE00A780020D30628D1281C50
:10532000FFF79EFCA2781549154B02241A600A6803
:105330002A23FF33D05C2043D0544A20FF30145C32
:1053400001231C4314548A69920B92038A610EE074
:105350000C4A281C00210123FFF738FE07E08A7859
:10536000084B1A60054B9A69920B92039A610120CF
:1053700076BDC046FD040020A9090020B409002024
:10538000B80A0020AC090020F8B54B4B071C1C786C
:10539000002C00D08FE0494D2868838B19070ED56B
:1053A000201C211CFFF7D4F82B6810201A1CFF3298
:1053B000917A01439172424A146008229A832B68C1
:1053C0009A8B50071FD504229A833E4B1A78002AE5
:1053D0000AD01A78013AD2B21A701B78002B03D186
:1053E0001A200121FEF762FA374B1A78002A0AD0F8
:1053F0001A78013AD2B21A701B78002B03D1192007
:105400000121FEF753FA2B68FF331A7AD10626D50D
:1054100010221A725A7940210A432C495A710A788B
:105420006023381C1A4202D1FFF722FF01E0FFF788
:105430007DFB002806D02B688022FF3399795242E9
:105440000A4301E0224B20229A712B68FF331A7A1B
:10545000500604D540221A72597A0A435A722968B2
:10546000FE230E8C00241E40E1B2002E23D0321CFD
:10547000012322411A4216D0221C28680832520108
:105480008218D079184203D1D279DA401A4207D073
:10549000104BA200D058002809D003681B68984719
:1054A0000123A3409E430134092CDDD103E0381CC5
:1054B000FFF766FAF4E7F8BDA8090020B409002058
:1054C000B80A0020C8070020B0090020CC0700203F
:1054D000FF5000418C09002008B50248FFF754FF37
:1054E00008BDC046AB090020014A024B1A60704754
:1054F00000500041B409002008B500F081F908BD52
:105500003F20704713B502686B46D9710733546862
:10551000191C0122A04716BD08B500690221FFF73A
:10552000B1FB08BD08B500690321FFF7C1FB08BD49
:1055300038B50D1C041C131C006903212A1CFFF73D
:10554000B3FC002801D10123636038BD10B5054CC0
:1055500023685A1C04D103685B6998472060031CC8
:10556000181C10BD84000020074A08B51368591C98
:1055700004D0012149421160181C03E00069022196
:10558000FFF784FC08BDC0468400002008B50378FE
:1055900003490233037042220248FFF73BFD08BD76
:1055A00040000020AB09002010B50178031C4278B0
:1055B0000020A12908D1212A2FD1184818490722F3
:1055C000FFF728FD012028E0212926D1202A05D136
:1055D000134907221148FFF7B1FB04E0222A10D13A
:1055E0009A780F4BDA710E4B96221968D2009142CD
:1055F00010D1DC7901231C400CD1FA20FEF72CFCE1
:105600000AE0232A09D1DA789B7812021A43054B63
:105610001A6002E0FEF726FC002010BDAB09002056
:10562000340000203C000020064BFA2189009960DC
:10563000054900220831196004495A6019611A7637
:105640007047C046BC0A002020630000AB09002060
:1056500070B544680E1C0025002C09D02368201C5E
:105660005B68311C9847002804DB2D18E468F3E7D9
:10567000281C01E00120404270BD38B544680D1C73
:10568000002C08D02368201C9B68291C9847002800
:1056900002D1E468F4E7201C38BD38B544680D1C1D
:1056A000002C07D02368201C291CDB689847E4687D
:1056B0002D18F5E72C7038BD38B544680D1C002C4A
:1056C00008D02368201C1B68291C9847002803D198
:1056D000E468F4E7201C00E0012038BD064B0122FD
:1056E000196810B51140054805D10224047004243E
:1056F000447041601A6010BDE00A0020D80A002002
:1057000002B4714649084900095C49008E4402BC54
:105710007047C046002934D00123002210B48842CB
:105720002CD301242407A14204D2814202D20901D0
:105730001B01F8E7E400A14204D2814202D24900F1
:105740005B00F8E7884201D3401A1A434C08A04294
:1057500002D3001B5C0822438C08A04202D3001B2A
:105760009C082243CC08A04202D3001BDC08224341
:10577000002803D01B0901D00909E3E7101C10BC65
:105780007047002801D00020C04307B4024802A19E
:105790004018029003BDC046190000000029F0D057
:1057A00003B5FFF7B9FF0EBC4243891A1847C0463C
:1057B0007047C04670B50E4B0E4D0024ED1AAD106B
:1057C0001E1CAC4204D0A300F35898470134F8E7FC
:1057D00000F0BAF8084B094D0024ED1AAD101E1C5C
:1057E000AC4204D0A300F35898470134F8E770BDE9
:1057F000EC000020EC000020EC0000200401002060
:1058000008B5034B011C186800F016F808BDC04627
:10581000E800002010B50023934203D0CC5CC454B0
:105820000133F9E710BD031C8218934202D01970AE
:105830000133FAE77047000070B50323CD1C9D4388
:105840000835061C0C2D01D20C2501E0002D3FDB94
:105850008D423DD3204B1C681A1C211C002913D0FB
:105860000868431B0DD40B2B02D90B60CC181EE02B
:105870008C4202D1636813601AE0486860600C1CB7
:1058800016E00C1C4968E9E7144C2068002803D195
:10589000301C00F025F82060301C291C00F020F896
:1058A000431C15D0C41C03239C4384420AD12560A9
:1058B000201C0B300722231D9043C31A0BD05A42E1
:1058C000E25008E0211A301C00F00AF80130EED155
:1058D0000C233360002070BDE80A0020E40A002099
:1058E00038B5074C0023051C081C236000F012F893
:1058F000431C03D12368002B00D02B6038BDC04669
:10590000F00B00200023C25C0133002AFBD1581E9B
:1059100070470000094A1368002B0CD0181869461C
:10592000884202D81060181C7047054B0C220120D9
:105930001A604042F8E7034B1360EFE7EC0A0020DF
:10594000F00B0020F40B0020F8B5C046F8BC08BCF2
:105950009E467047F8B5C046F8BC08BC9E467047E6
:105960000D0A506F6C6C696E6720696E7465727693
:10597000616C3A09000D0A50726F642E737472697B
:105980006E6720696E6465783A09000D0A436F6E90
:1059900066696775726174696F6E2064657363729E
:1059A0006970746F723A000D0A547970653A09098A
:1059B000000D0A556E6B6E6F776E206465736372AF
:1059C0006970746F723A000D0A436F6E662E7374BD
:1059D00072696E673A0909000D0A496E74662E6E87
:1059E000756D6265723A090900546F74616C206CC0
:1059F000656E677468207472756E63617465642087
:105A0000746F20323536206279746573000D0A4553
:105A10006E64706F696E7420616464726573733A4A
:105A200009000D0A4D61782E7061636B65742073F7
:105A3000697A653A09000D0A446573637269707486
:105A40006F72204C656E6774683A09000D0A0D0A82
:105A5000496E74657266616365206465736372691B
:105A600070746F723A000D0A436F6E662E76616C29
:105A700075653A0909000D0A5265766973696F6E9A
:105A80002049443A0909000D0A526571756573741D
:105A9000206572726F722E204572726F7220636F72
:105AA00064653A09000D0A416464723A00280029CD
:105AB000000D0A414444523A09004445563A09004F
:105AC00050524E543A09004855423A09000D0A0D09
:105AD0000A4875622044657363726970746F723A24
:105AE0000D0A0062446573634C656E6774683A0919
:105AF00009006244657363726970746F72547970DF
:105B0000653A0900624E6272506F7274733A090905
:105B1000004C6F675077725377697463684D6F6498
:105B2000653A0900436F6D706F756E644465766900
:105B300063653A0909004F76657243757272656E46
:105B40007450726F746563744D6F64653A090054E4
:105B5000545468696E6B54696D653A090900506F59
:105B60007274496E64696361746F72735375707097
:105B70006F727465643A0052657365727665643A53
:105B8000090900625077724F6E32507772476F6F1B
:105B9000643A09090062487562436F6E7472437516
:105BA0007272656E743A09000D0A0D0A4849442064
:105BB00044657363726970746F723A0D0A004849E4
:105BC0004420436C6173732052656C656173653A60
:105BD00009000D0A436F756E74727920436F646516
:105BE0003A0909000D0A4E756D6220436C617373AA
:105BF0002044657363726970746F723A09000D0A0C
:105C000044657363726970746F7220547970653A79
:105C100009005245504F5254204445534352495075
:105C2000544F52000D0A4353697A65205265706FD4
:105C300072742044657363723A0900494E09090081
:105C40004F5554090900494E544552525550540974
:105C50000042554C4B090049534F09000D0A2D2DA8
:105C600000436F6E74726F6C6C65722050726F6758
:105C700072616D2073746172746564004F534320C8
:105C8000646964206E6F742073746172742E000DE9
:105C90000A496E74662E2050726F746F636F6C3A8F
:105CA0000909000D0A53657269616C206E756D6299
:105CB000657220696E6465783A09000D0A4465765C
:105CC00069636520537562636C6173733A09000DF3
:105CD0000A417474722E3A090909000D0A56656E5C
:105CE000646F72202049443A0909000D0A0D0A45E3
:105CF0006E64706F696E742064657363726970742A
:105D00006F723A000D0A496E74662E737472696E72
:105D1000673A0909000D0A496E74662E20537562B0
:105D2000636C6173733A0909000D0A4E756D626503
:105D300072206F6620636F6E662E3A09000D0A4D61
:105D400061782E706B742073697A653A0909000DC9
:105D50000A4D61782E7077723A0909000D0A546F66
:105D600074616C206C656E6774683A0909000D0AED
:105D7000456E64706F696E74733A0909000D0A44C8
:105D800065766963652050726F746F636F6C3A0952
:105D9000000D0A4C656E6774683A0909000D0A49DE
:105DA0006E74662E20436C6173733A0909000D0A04
:105DB0004E756D2E696E74663A0909000D0A4465C8
:105DC0007669636520636C6173733A0909000D0A93
:105DD000436F6E74656E74733A09000D0A417474F2
:105DE000722E3A090909000D0A416C742E3A09090C
:105DF00009000D0A44657669636520646573637202
:105E00006970746F723A20000D0A44657363726999
:105E100070746F7220747970653A09000D0A4D66CE
:105E2000672E737472696E6720696E6465783A09CB
:105E3000000D0A5553422076657273696F6E3A09F8
:105E400009000D0A50726F647563742049443A0961
:105E50000900000000000000000000000000000039
:105E6000032E00007F2D0000C7300000000000005E
:105E7000000000000B000000020000000400000011
:105E8000FF00FFFFFFFF0B00000000000A00000002
:105E90000200000004000000FF00FFFFFFFF0A00F7
:105EA000000000000E0000000800000004000000D8
:105EB000FF00FFFFFFFF0E000000000009000000D0
:105EC000040000001C000000FF00010001000900A8
:105ED0000000000008000000040000001C0000009A
:105EE000FF00000000001000000000000F00000094
:105EF000040000001C000000FF00010301030F006C
:105F00000000000014000000050000002C0000004C
:105F1000FF00020002000400000000001500000065
:105F2000050000002C000000FF0003000300050036
:105F30000000000006000000040000001C0000003B
:105F4000FF00000100010600000000000700000043
:105F5000040000001C000000FF0001010101070017
:105F60000000000012000000040000001C000000FF
:105F7000FF0000030003020000000000100000000A
:105F8000040000001C000000FF00000200020000EE
:105F90000000000013000000050000002C000000BD
:105FA000FF000300030003000000000011000000D8
:105FB000040000001C000000FF00010201020100BB
:105FC00000000000020000000100000002000000CC
:105FD0000000FFFFFFFF02000100000008000000BA
:105FE0000100000018000000020000040004080086
:105FF000010000000900000001000000180000007E
:106000000300010401040900000000000400000076
:1060100001000000000000000400FFFFFFFF04007B
:10602000000000000500000001000000000000006A
:106030000500FFFFFFFF0500010000000200000057
:1060400001000000000000000A00FFFFFFFF020047
:106050000000000016000000020000000400000024
:10606000FF00FFFFFFFF0600000000001700000018
:106070000200000004000000FF00FFFFFFFF070018
:10608000000000000C0000000300000004000000FD
:10609000FF00FFFFFFFF0C00010000000A000000EE
:1060A0000300000004000000FF00FFFFFFFF0A00E4
:1060B000010000000B0000000300000004000000CD
:1060C000FF00FFFFFFFF0B000100000003000000C6
:1060D0000B00000004000000FF00FFFFFFFFFF00B7
:1060E000000000001B0000000B0000000400000086
:1060F000FF00FFFFFFFFFF00000000001C0000008A
:106100000600000000000000FF00FFFFFFFFFF008F
:106110000000000018000000060000000000000061
:10612000FF00FFFFFFFFFF0000000000190000005C
:106130000600000000000000FF00FFFFFFFFFF005F
:106140000100000016000000030000000000000035
:10615000FF00FFFFFFFFFF0001000000170000002D
:106160000300000000000000FF00FFFFFFFFFF0032
:106170000000000016000000020000000000000007
:10618000FF00FFFFFFFFFF000000000017000000FE
:106190000200000000000000FF00FFFFFFFFFF0003
:1061A00000000000130000000200000000000000DA
:1061B000FF00FFFFFFFFFF000000000010000000D5
:1061C0000200000000000000FF00FFFFFFFFFF00D3
:1061D00000000000120000000200000000000000AB
:1061E000FF00FFFFFFFFFF000000000011000000A4
:1061F0000200000000000000FF00FFFFFFFFFF00A3
:10620000000000000D000000040000000C00000071
:10621000FF000100FFFF0D0000000000150000005E
:10622000050000000C000000FF000300FFFFFF005E
:106230000000000006000000040000000C00000048
:10624000FF000001FFFFFF0000000000070000004A
:10625000040000000C000000FF000101FFFFFF0030
:106260000000000003000000010000000200000028
:10627000FF00FFFFFFFFFF00000000000200000022
:1062800001000000020000001400FFFFFFFF0200F9
:106290006E616E00696E66006F7666000000000039
:1062A000000000000000000035440000153D000023
:1062B000774300003943000051430000ED440000E3
:1062C0001141000001410000394200002741000057
:1062D000FD40000000000000000000000000000081
:1062E0008D48000071470000B94600000000000022
:1062F00041726475696E6F204C4C430004030904BD
:1063000012010002EF02014041234D800001010211
:10631000030141726475696E6F205A65726F0000E7
:10632000000000000000000005550000315500008D
:106330000155000025550000195500006955000061
:106340004D55000000000000430000000000000068
:10635000000000000000000000000000000000003D
:10636000000000000000000000000000000000002D
:10637000000000000000000000000000000000001D
:10638000000000000000000000000000000000000D
:1063900000000000000000000000000000000000FD
:1063A00000000000000000000000000000000000ED
:1063B0001100000040420F00FFFFFFFF000000003F
:1063C00083000000020000008200000000000000C6
:1063D00000000000000000000000000000000000BD
:1063E0000000000000C2010000000800FFFFFFFFE6
:1063F000080B000202020000090400000102020072
:1064000000052400100104240206052406000105ED
:106410002401010107058103100010090401000295
:106420000A00000007050202400000070583024041
:1064300000000000FFFFFFFF000000004C630000B1
:106440006C6300008C63000000000000000000008E
:106450000000000000000000486300000000000091
:10646000000000000000000000000000000000002C
:10647000000000000000000000000000000000001C
:10648000000000000000000000000000000000000C
:10649000000000000000000088000020DD20000057
:1064A000FD2800008D290000E1330000E9540000C0
:1064B00029560000B5200000000000000000000088
:040000030000348D38
�      	                              
            e  �L#x +�K +�H � �##p�\         �K +�HI � �Hh +�K + ИG��F      `   X       JKx )	�Ix	xAɲp� I��ax1ɲpx�)�x	)	�Ix@B��px	xAɲpxx�Bр"K��apGx           D A��i���h$�C`�i#B��h#C`h����i#B���i�@B��KC`�iZ���#�C`���i���h"C`�  @~����pG  ~#Q��B�B�B��@B�B��B�K"p ���pG�Fy   p�h��!�2B&Ѐ ���r#Sp@!K�qPq^hM� .@�C^`^i5@(CXaH`Ha]hH(@�%�(CX`Xh��X` #Qq#q�z��  ��� yp��  �����     �? � #qCqK`�`x"CppG�F�  8�6K !�i 
C�a4K$xCp2K"x�Cpx!Cp/Ix Cpx
@px`!
Cp+K+JZ�ZxR� *��)K!x
Cp�x���&HhQ"@�B �!@��"I)@!C�h�
@* �"�!
@�C"C�h!�
@�B �"
@�J@
C�x"
@px!H
CpXb�!�C��!�C� !�"�v�8�  @XD A<D AYD A  @@   P A$`� ?��������  ��J_��Xi'@ @03�@��"Yh
CZ`	�/{�AK��8"�5��H5BaRi����
CZaYiJ
@Zak�"�qYy�"RB
CZqk��y��� ���    �? ���N3x +�KJdZl��ZdXlJ@Zd�#[ �\@ C�T#3pH'�7�]#@�KZl���B�\l��"I���#�U #3p � ��z   �  �   �? ��0�y " ) �"C�qpG  K�0Zi��Za#r�y�#[BC�qz���pG�F�  �#[BCɲ�rpGp��#"[ �TKJ\l�!@�CF%\d�5@$DUM0&d�%m FU]k@)C�%Ycm �!AU	Mc�%m DU\o"@Zg�#[ �Tp��F�  �����   X  0�6J#Qh �C#CQ`3I�iC�a2H2J����C���h���/K px��,H@x@� (�� �`Xx@� (��(L&HD`Xx@� (�ۂ$#H�D�Xx@� (�ې��$�C���h���LH�b�hH��Մ�M,C���hH��Մ�%,C���h��H�hE���h��� "�`ZxR� *��H
JP`ZxR� *�� #rKr�r�r0��F @ A  @    @  @ ��}
    ���
���������JH8��B�JK�B�
�
L�B�� #��B���X3
`�� ���B�� !�����    \   �  \     3J8�h3�Ѳ )�0Kx#@/K
�h.I�B�`�`,I9 )��`#h����#�C(K�`"K[hG��)�b� ��� �Z�#K�"�#I�`"
`"I
`�"�`�aK J�!Z`J	j  
Cb "�`"`�h �GK (�"px *�   �� ����x +�� �� (��  �� �����F    8 @�  5�sH�  � � D A�D A�D A� ��  {   ����� �����KL#`��b� !h��P� � P A  p��� �;�@ jF#0Sppv#�:xZ  )�(iF #����@�p��B��hF�R3��  ���Jhx�I'�7 8rpSx�H�Np�x3��x3�	C3�y�K�Qy�	C��y�I��y�C
�@"zq�O:x�O8xC�H�FbE ��� ܀!I �B �n�	܁* ђ�* ѕ�* �d��#[ �B ��� �X��#� �B �W�K�B �O�R�#�Bi���#� �B"Ј#�BiР#� �B �@� ����1�(h������;�K�B �/� �1�K�B ��K�B �)�3�kq"�3�
+��"(h�B�
���~I�3�
+��C"(h�B�
���yI�3�
+ ��3�۲+� +�+ ���
�(hҲpI�"�oI �Y�;�"(h�B�:������
�(hiIҲ�����3� +q��~� ������)�"��aI #�(h"��^I "
��P"@\Jp� 0@��( ���x�3[��y *Л ����(h"���"�CNJɲp�!@�1� ) У�� ) џ��) ٛ�x�3[� *� "Zq��!Yq���#�C<KҲp�"
@�2� * Ѐ�� * �|��* �x�x +��3[��y�j�� "3[�q�3[��y_]��@"3[��q�"3[���3[��y�J��"3[�q�3[��y�=�� "3[��q�"3[�q0��F�   }   �   �   �   �       !   �!  !"  \     L  <  @  ~   |   �"(h�B�
���I #���� ����� !�������FH   �K"��h���� ��F  �KlF4h!"��7� x��F  �L ���  �B�"hH#�3�\#@�  �Jh#"���� �  p�L 
���� #�B� h1*���p�  ��L ���� #'4�B
� ,�)"8h����$-��3���F  ��GK�"ZaKd"���F D A�   (�KJ`Kp� (�JK`pG�  �  �   �  0�
I��	x )*�*� h�*� � � xR ��;��B�!@	)�0%)C �71p 	;���0#px#Kp
 ��p
 �pK2h�h�I	h�h�����0��F�   �  r����J`h���ChGpG�F�  
K� *	��:��� *р"	K�aK� *��:��� *�K"`pG�    D A�   �D A𵑰��J1�1�Q�Q�`�`��K�H�hz%RR� RX�I`�h��bC`�I $
`�J`�L%p�L�M#h(i@!�G (��K"`�Kd"��K "`�K`�K�M�O`*h;h�B�ҽKhx�* � �#* ���N3x +вK�Ih"�h����KxS+?�;h*h�BٯH2*`��Khh1`�N�B�2` �3`�H2h h� ���3h)hZ*`�Jh�`�Jp+h;+`�Kh:`�K�Jxh�B
�"h�H� h�i�G (ВK"`�Kd"��F��R+щH�J#h hh[i��G�K�"Zad"�K
�O+сK�Jhhp}�H+�}K�Jhh�u�W+�yK�Jhh`m�o+�uK!h�h+�rK|Hh!�`����\�w+�lKwHh!h`��G+�sKh����vKh���b�tKx + �C�cK hh�G=�T+�#3p^Khd�N+�3x +�ZKaIh"�h��f� #3p'�V+W�#hcI�h"��[�#haI�h"��U�`M#h)�h"��N�#h]I�h
"��H�#h)�h"��B�IOJMWI #9`+`:(h^`x� +�h3`��;N*h3h�h��)�3hII�h"��#��)`II9`8JhX`x +�5Kh2`��3h*h�h���3h�h1I"��1JX+�!N#M6hh*h� �B
�MX�a7H(�M(}���[��K3Ih�h��Y+ �}�hK0I *�h`p�Mhhkh
N�%�C�s` *e�(K	M+�N3}��� #M-h���BG�"MN5�J�p   @ A@  8  4  �  0  �  D  �D A�   (  ,  <  �   �  �  �  $   D A�   �  �   �  �  �  �  �  �  ����  �   D�������B�Н FY3NQ��@N5}��՝ I@���<K=Ih�h.�Z+/�;Khh &��B�(x1 ��5��2K4Ih"�h��V�#"2@6	01	* �1 �jF�T;��#h��h"��A�#h'I�h"��;�&Kz"p%K "`%Kx�B-�K#Ih"�h��*�%�09ȲK	(�h*C`�A9)�h7:1�a9)�hW:
C�,*�Jh`�I
p "`Kh2`
Kh2���F @ A�  �  �  �  �  0  �  �   �  <  ,  �K x$CpK"x�Cpx!CpIx Cpx
@px !
CpK!j
CbKJZ�ZxR� *���"HI���0�J #pJpJpJpJpJp�JD A5D AKD A  @  @@    B*�  �    �  �       ���H��/� ��F  BK~@�pG�F  B����� (��H�� ���F  B����� #�B�����#;ZBSA�p�
F�B� x����4��(p������ p �
X@K@ �Z	H@��pG�F  �� $&�B �����K��x� +�1����
K� *�Jx* )��j)p�/��9�4����0 � ��  �    �>N�� "�2p<K�B�"�:I�p#BЀ4�C��~�3x�� +� %5p��v�3x���B6�C(�q(S�(��# � ��U� ���R� ��%�C����L�� '�$J� +�!I�	x )����=�9���y�= -�� 
����1�����.���>�3x +
�5p��;	x���3�����(� ��3۲�1 ��<� ,�� ������K%p � %(��    �  �8L�� #�#p�B�#�4J�4Jd&pC ����2O���� (� /�?�� /�> .��M�%����#x +8����(�(=� ����9��!0�����!���#x� +�����������#x?��+
���B�3x�B��Crx۲�B� ���� #� �����"x *� &&p�+��k�2ݲ���J #p&0��  �     5 � #�B��\�T3�����B�p3��pG #�\3 *��XpG���F����FpG���F����FpG	Arduino LLC Arduino Zero       @A#M               @   �            �  !    U  o  �    v   Dec 20 2016 15:36:39 X

 Y

 Z #

 > 2.0    =  Y  u  �  �  �  �  [Arduino:XYZ]   !B c0�@�P�`�p�)�J�k���������1s2R"�R�B�r�b9��{�Z��Ӝ�����b$C4 �d�t�D�Tj�K�(�	������ō�S6r&0�v�f�V�F[�z��8�����׼��H�X�h�x@a(#8���َ��H�i�
�+��Z�J�z�jqP
3:*���˿���y�X�;���l�|�L�\",<`A�������*��h�I��~�n�^�N>2.Qp���������:�Y�x�����ʱ��-�N�o�� �0� P%@Fpg`������ڳ=���^���"�25BRwbVr�˥����n�O�,�
��4�$��ftGd$TDۧ������_�~��<��&�6��WfvvF4VL�m��/�ș鉊���DXeHx'h���8�(}�\�?����؛����uJTZ7jz�
��*�:.��l�Mͪ����ɍ&|ld\EL�<�,���>�]�|ߛ���ُ��n6~UNt^�.�>��        	C  �2	    $ $ $ $ � �	 
   �@  @    �    i   A       